{
  "contractName": "Insurance",
  "abi": [
    {
      "inputs": [
        {
          "internalType": "address",
          "name": "_police",
          "type": "address"
        }
      ],
      "payable": false,
      "stateMutability": "nonpayable",
      "type": "constructor"
    },
    {
      "constant": false,
      "inputs": [
        {
          "internalType": "string",
          "name": "name",
          "type": "string"
        }
      ],
      "name": "addProduct",
      "outputs": [],
      "payable": false,
      "stateMutability": "nonpayable",
      "type": "function"
    },
    {
      "constant": true,
      "inputs": [],
      "name": "getProducts",
      "outputs": [
        {
          "components": [
            {
              "internalType": "string",
              "name": "name",
              "type": "string"
            }
          ],
          "internalType": "struct Insurance.Product[]",
          "name": "",
          "type": "tuple[]"
        }
      ],
      "payable": false,
      "stateMutability": "view",
      "type": "function"
    },
    {
      "constant": true,
      "inputs": [],
      "name": "getMyInsurance",
      "outputs": [
        {
          "components": [
            {
              "internalType": "bool",
              "name": "isPurchased",
              "type": "bool"
            },
            {
              "internalType": "bool",
              "name": "isClaimed",
              "type": "bool"
            },
            {
              "internalType": "uint256",
              "name": "premium",
              "type": "uint256"
            },
            {
              "internalType": "uint256",
              "name": "amount",
              "type": "uint256"
            }
          ],
          "internalType": "struct Insurance.InsuranceDetails[]",
          "name": "",
          "type": "tuple[]"
        }
      ],
      "payable": false,
      "stateMutability": "view",
      "type": "function"
    },
    {
      "constant": true,
      "inputs": [],
      "name": "getMyClaims",
      "outputs": [
        {
          "components": [
            {
              "internalType": "uint8",
              "name": "productIndex",
              "type": "uint8"
            },
            {
              "internalType": "uint256",
              "name": "amount",
              "type": "uint256"
            },
            {
              "internalType": "address",
              "name": "claimedBy",
              "type": "address"
            },
            {
              "internalType": "bool",
              "name": "isApproved",
              "type": "bool"
            },
            {
              "internalType": "bool",
              "name": "isRejected",
              "type": "bool"
            },
            {
              "internalType": "uint256",
              "name": "time",
              "type": "uint256"
            }
          ],
          "internalType": "struct Insurance.Claim[]",
          "name": "",
          "type": "tuple[]"
        }
      ],
      "payable": false,
      "stateMutability": "view",
      "type": "function"
    },
    {
      "constant": true,
      "inputs": [],
      "name": "getAllClaims",
      "outputs": [
        {
          "components": [
            {
              "internalType": "uint8",
              "name": "productIndex",
              "type": "uint8"
            },
            {
              "internalType": "uint256",
              "name": "amount",
              "type": "uint256"
            },
            {
              "internalType": "address",
              "name": "claimedBy",
              "type": "address"
            },
            {
              "internalType": "bool",
              "name": "isApproved",
              "type": "bool"
            },
            {
              "internalType": "bool",
              "name": "isRejected",
              "type": "bool"
            },
            {
              "internalType": "uint256",
              "name": "time",
              "type": "uint256"
            }
          ],
          "internalType": "struct Insurance.Claim[]",
          "name": "",
          "type": "tuple[]"
        }
      ],
      "payable": false,
      "stateMutability": "view",
      "type": "function"
    },
    {
      "constant": false,
      "inputs": [
        {
          "internalType": "uint8",
          "name": "productIndex",
          "type": "uint8"
        },
        {
          "internalType": "uint256",
          "name": "premium",
          "type": "uint256"
        }
      ],
      "name": "buyInsurance",
      "outputs": [],
      "payable": false,
      "stateMutability": "nonpayable",
      "type": "function"
    },
    {
      "constant": false,
      "inputs": [
        {
          "internalType": "uint8",
          "name": "productIndex",
          "type": "uint8"
        }
      ],
      "name": "payPremium",
      "outputs": [],
      "payable": true,
      "stateMutability": "payable",
      "type": "function"
    },
    {
      "constant": false,
      "inputs": [
        {
          "internalType": "uint8",
          "name": "productIndex",
          "type": "uint8"
        },
        {
          "internalType": "uint256",
          "name": "amount",
          "type": "uint256"
        }
      ],
      "name": "claimInsurance",
      "outputs": [],
      "payable": false,
      "stateMutability": "nonpayable",
      "type": "function"
    },
    {
      "constant": false,
      "inputs": [
        {
          "internalType": "uint8",
          "name": "claimId",
          "type": "uint8"
        }
      ],
      "name": "approveInsurance",
      "outputs": [],
      "payable": false,
      "stateMutability": "nonpayable",
      "type": "function"
    },
    {
      "constant": false,
      "inputs": [
        {
          "internalType": "uint8",
          "name": "claimId",
          "type": "uint8"
        }
      ],
      "name": "rejectInsurance",
      "outputs": [],
      "payable": false,
      "stateMutability": "nonpayable",
      "type": "function"
    },
    {
      "constant": false,
      "inputs": [],
      "name": "closeCompany",
      "outputs": [],
      "payable": false,
      "stateMutability": "nonpayable",
      "type": "function"
    },
    {
      "constant": true,
      "inputs": [],
      "name": "checkUser",
      "outputs": [
        {
          "internalType": "string",
          "name": "",
          "type": "string"
        }
      ],
      "payable": false,
      "stateMutability": "view",
      "type": "function"
    },
    {
      "constant": false,
      "inputs": [],
      "name": "addFunds",
      "outputs": [],
      "payable": true,
      "stateMutability": "payable",
      "type": "function"
    },
    {
      "constant": true,
      "inputs": [],
      "name": "getBalance",
      "outputs": [
        {
          "internalType": "uint256",
          "name": "",
          "type": "uint256"
        }
      ],
      "payable": false,
      "stateMutability": "view",
      "type": "function"
    }
  ],
  "bytecode": "0x60806040523480156200001157600080fd5b506040516200286c3803806200286c8339818101604052620000379190810190620000d6565b336000806101000a81548173ffffffffffffffffffffffffffffffffffffffff021916908373ffffffffffffffffffffffffffffffffffffffff16021790555080600160006101000a81548173ffffffffffffffffffffffffffffffffffffffff021916908373ffffffffffffffffffffffffffffffffffffffff1602179055505062000150565b600081519050620000d08162000136565b92915050565b600060208284031215620000e957600080fd5b6000620000f984828501620000bf565b91505092915050565b60006200010f8262000116565b9050919050565b600073ffffffffffffffffffffffffffffffffffffffff82169050919050565b620001418162000102565b81146200014d57600080fd5b50565b61270c80620001606000396000f3fe6080604052600436106100dd5760003560e01c8063a26759cb1161007f578063c29b2f2011610059578063c29b2f2014610255578063ccf2a0a314610280578063dfe00c51146102a9578063e28a392a146102d2576100dd565b8063a26759cb146101f5578063bf5969af146101ff578063c15625471461022a576100dd565b80635b23c27d116100bb5780635b23c27d1461014d5780635ca71cbe146101785780636a772b68146101a35780637500ad7b146101cc576100dd565b8063068ffb31146100e257806312065fe0146100f95780633078eb4014610124575b600080fd5b3480156100ee57600080fd5b506100f76102ee565b005b34801561010557600080fd5b5061010e6103b7565b60405161011b919061249c565b60405180910390f35b34801561013057600080fd5b5061014b60048036036101469190810190611c7a565b61044e565b005b34801561015957600080fd5b506101626105c9565b60405161016f91906122d4565b60405180910390f35b34801561018457600080fd5b5061018d6107cc565b60405161019a91906122d4565b60405180910390f35b3480156101af57600080fd5b506101ca60048036036101c59190810190611c51565b6109b2565b005b3480156101d857600080fd5b506101f360048036036101ee9190810190611c51565b610d5d565b005b6101fd611059565b005b34801561020b57600080fd5b506102146110ea565b60405161022191906122f6565b60405180910390f35b34801561023657600080fd5b5061023f61122b565b60405161024c919061233a565b60405180910390f35b34801561026157600080fd5b5061026a61138e565b6040516102779190612318565b60405180910390f35b34801561028c57600080fd5b506102a760048036036102a29190810190611c7a565b61148b565b005b3480156102b557600080fd5b506102d060048036036102cb9190810190611c10565b611786565b005b6102ec60048036036102e79190810190611c51565b611870565b005b6000809054906101000a900473ffffffffffffffffffffffffffffffffffffffff1673ffffffffffffffffffffffffffffffffffffffff163373ffffffffffffffffffffffffffffffffffffffff161461037d576040517f08c379a00000000000000000000000000000000000000000000000000000000081526004016103749061237c565b60405180910390fd5b6000809054906101000a900473ffffffffffffffffffffffffffffffffffffffff1673ffffffffffffffffffffffffffffffffffffffff16ff5b60008060009054906101000a900473ffffffffffffffffffffffffffffffffffffffff1673ffffffffffffffffffffffffffffffffffffffff163373ffffffffffffffffffffffffffffffffffffffff1614610448576040517f08c379a000000000000000000000000000000000000000000000000000000000815260040161043f9061237c565b60405180910390fd5b47905090565b600460003373ffffffffffffffffffffffffffffffffffffffff1673ffffffffffffffffffffffffffffffffffffffff16815260200190815260200160002060008360ff1660ff16815260200190815260200160002060000160009054906101000a900460ff16156104f5576040517f08c379a00000000000000000000000000000000000000000000000000000000081526004016104ec9061245c565b60405180910390fd5b80600460003373ffffffffffffffffffffffffffffffffffffffff1673ffffffffffffffffffffffffffffffffffffffff16815260200190815260200160002060008460ff1660ff168152602001908152602001600020600101819055506001600460003373ffffffffffffffffffffffffffffffffffffffff1673ffffffffffffffffffffffffffffffffffffffff16815260200190815260200160002060008460ff1660ff16815260200190815260200160002060000160006101000a81548160ff0219169083151502179055505050565b60606000809054906101000a900473ffffffffffffffffffffffffffffffffffffffff1673ffffffffffffffffffffffffffffffffffffffff163373ffffffffffffffffffffffffffffffffffffffff1614806106735750600160009054906101000a900473ffffffffffffffffffffffffffffffffffffffff1673ffffffffffffffffffffffffffffffffffffffff163373ffffffffffffffffffffffffffffffffffffffff16145b6106b2576040517f08c379a00000000000000000000000000000000000000000000000000000000081526004016106a9906123dc565b60405180910390fd5b6003805480602002602001604051908101604052809291908181526020016000905b828210156107c357838290600052602060002090600402016040518060c00160405290816000820160009054906101000a900460ff1660ff1660ff168152602001600182015481526020016002820160009054906101000a900473ffffffffffffffffffffffffffffffffffffffff1673ffffffffffffffffffffffffffffffffffffffff1673ffffffffffffffffffffffffffffffffffffffff1681526020016002820160149054906101000a900460ff161515151581526020016002820160159054906101000a900460ff16151515158152602001600382015481525050815260200190600101906106d4565b50505050905090565b60608060038054905060405190808252806020026020018201604052801561080e57816020015b6107fb611a6e565b8152602001906001900390816107f35790505b509050600080905060008090505b6003805490508110156109a9573373ffffffffffffffffffffffffffffffffffffffff166003828154811061084d57fe5b906000526020600020906004020160020160009054906101000a900473ffffffffffffffffffffffffffffffffffffffff1673ffffffffffffffffffffffffffffffffffffffff16141561099c57600381815481106108a857fe5b90600052602060002090600402016040518060c00160405290816000820160009054906101000a900460ff1660ff1660ff168152602001600182015481526020016002820160009054906101000a900473ffffffffffffffffffffffffffffffffffffffff1673ffffffffffffffffffffffffffffffffffffffff1673ffffffffffffffffffffffffffffffffffffffff1681526020016002820160149054906101000a900460ff161515151581526020016002820160159054906101000a900460ff1615151515815260200160038201548152505083838151811061098a57fe5b60200260200101819052506001820191505b808060010191505061081c565b50819250505090565b600160009054906101000a900473ffffffffffffffffffffffffffffffffffffffff1673ffffffffffffffffffffffffffffffffffffffff163373ffffffffffffffffffffffffffffffffffffffff1614610a42576040517f08c379a0000000000000000000000000000000000000000000000000000000008152600401610a39906123fc565b60405180910390fd5b8060ff1660038054905011610a8c576040517f08c379a0000000000000000000000000000000000000000000000000000000008152600401610a839061239c565b60405180910390fd5b60038160ff1681548110610a9c57fe5b906000526020600020906004020160020160149054906101000a900460ff1615610afb576040517f08c379a0000000000000000000000000000000000000000000000000000000008152600401610af29061247c565b60405180910390fd5b60038160ff1681548110610b0b57fe5b906000526020600020906004020160020160159054906101000a900460ff1615610b6a576040517f08c379a0000000000000000000000000000000000000000000000000000000008152600401610b619061235c565b60405180910390fd5b600160038260ff1681548110610b7c57fe5b906000526020600020906004020160020160146101000a81548160ff0219169083151502179055504260038260ff1681548110610bb557fe5b90600052602060002090600402016003018190555060006004600060038460ff1681548110610be057fe5b906000526020600020906004020160020160009054906101000a900473ffffffffffffffffffffffffffffffffffffffff1673ffffffffffffffffffffffffffffffffffffffff1673ffffffffffffffffffffffffffffffffffffffff168152602001908152602001600020600060038460ff1681548110610c5e57fe5b906000526020600020906004020160000160009054906101000a900460ff1660ff1660ff16815260200190815260200160002060000160016101000a81548160ff021916908315150217905550600060038260ff1681548110610cbd57fe5b906000526020600020906004020160020160009054906101000a900473ffffffffffffffffffffffffffffffffffffffff1690508073ffffffffffffffffffffffffffffffffffffffff166108fc60038460ff1681548110610d1b57fe5b9060005260206000209060040201600101549081150290604051600060405180830381858888f19350505050158015610d58573d6000803e3d6000fd5b505050565b600160009054906101000a900473ffffffffffffffffffffffffffffffffffffffff1673ffffffffffffffffffffffffffffffffffffffff163373ffffffffffffffffffffffffffffffffffffffff1614610ded576040517f08c379a0000000000000000000000000000000000000000000000000000000008152600401610de4906123fc565b60405180910390fd5b8060ff1660038054905011610e37576040517f08c379a0000000000000000000000000000000000000000000000000000000008152600401610e2e9061239c565b60405180910390fd5b60038160ff1681548110610e4757fe5b906000526020600020906004020160020160149054906101000a900460ff1615610ea6576040517f08c379a0000000000000000000000000000000000000000000000000000000008152600401610e9d9061247c565b60405180910390fd5b60038160ff1681548110610eb657fe5b906000526020600020906004020160020160159054906101000a900460ff1615610f15576040517f08c379a0000000000000000000000000000000000000000000000000000000008152600401610f0c9061235c565b60405180910390fd5b600160038260ff1681548110610f2757fe5b906000526020600020906004020160020160156101000a81548160ff0219169083151502179055504260038260ff1681548110610f6057fe5b90600052602060002090600402016003018190555060006004600060038460ff1681548110610f8b57fe5b906000526020600020906004020160020160009054906101000a900473ffffffffffffffffffffffffffffffffffffffff1673ffffffffffffffffffffffffffffffffffffffff1673ffffffffffffffffffffffffffffffffffffffff168152602001908152602001600020600060038460ff168154811061100957fe5b906000526020600020906004020160000160009054906101000a900460ff1660ff1660ff16815260200190815260200160002060000160016101000a81548160ff02191690831515021790555050565b6000809054906101000a900473ffffffffffffffffffffffffffffffffffffffff1673ffffffffffffffffffffffffffffffffffffffff163373ffffffffffffffffffffffffffffffffffffffff16146110e8576040517f08c379a00000000000000000000000000000000000000000000000000000000081526004016110df9061237c565b60405180910390fd5b565b60608060028054905060405190808252806020026020018201604052801561112c57816020015b611119611ac1565b8152602001906001900390816111115790505b509050600080905060008090505b6002805490508160ff16101561122257600460003373ffffffffffffffffffffffffffffffffffffffff1673ffffffffffffffffffffffffffffffffffffffff16815260200190815260200160002060008260ff1660ff1681526020019081526020016000206040518060800160405290816000820160009054906101000a900460ff161515151581526020016000820160019054906101000a900460ff1615151515815260200160018201548152602001600282015481525050838360ff168151811061120457fe5b6020026020010181905250600182019150808060010191505061113a565b50819250505090565b60606000809054906101000a900473ffffffffffffffffffffffffffffffffffffffff1673ffffffffffffffffffffffffffffffffffffffff163373ffffffffffffffffffffffffffffffffffffffff1614156112bf576040518060400160405280600581526020017f6f776e6572000000000000000000000000000000000000000000000000000000815250905061138b565b600160009054906101000a900473ffffffffffffffffffffffffffffffffffffffff1673ffffffffffffffffffffffffffffffffffffffff163373ffffffffffffffffffffffffffffffffffffffff161415611352576040518060400160405280600681526020017f706f6c6963650000000000000000000000000000000000000000000000000000815250905061138b565b6040518060400160405280600481526020017f757365720000000000000000000000000000000000000000000000000000000081525090505b90565b60606002805480602002602001604051908101604052809291908181526020016000905b8282101561148257838290600052602060002001604051806020016040529081600082018054600181600116156101000203166002900480601f01602080910402602001604051908101604052809291908181526020018280546001816001161561010002031660029004801561146a5780601f1061143f5761010080835404028352916020019161146a565b820191906000526020600020905b81548152906001019060200180831161144d57829003601f168201915b505050505081525050815260200190600101906113b2565b50505050905090565b600460003373ffffffffffffffffffffffffffffffffffffffff1673ffffffffffffffffffffffffffffffffffffffff16815260200190815260200160002060008360ff1660ff16815260200190815260200160002060000160009054906101000a900460ff16611531576040517f08c379a00000000000000000000000000000000000000000000000000000000081526004016115289061243c565b60405180910390fd5b600460003373ffffffffffffffffffffffffffffffffffffffff1673ffffffffffffffffffffffffffffffffffffffff16815260200190815260200160002060008360ff1660ff16815260200190815260200160002060000160019054906101000a900460ff16156115d8576040517f08c379a00000000000000000000000000000000000000000000000000000000081526004016115cf906123bc565b60405180910390fd5b6001600460003373ffffffffffffffffffffffffffffffffffffffff1673ffffffffffffffffffffffffffffffffffffffff16815260200190815260200160002060008460ff1660ff16815260200190815260200160002060000160016101000a81548160ff02191690831515021790555060036040518060c001604052808460ff1681526020018381526020013373ffffffffffffffffffffffffffffffffffffffff168152602001600015158152602001600015158152602001428152509080600181540180825580915050906001820390600052602060002090600402016000909192909190915060008201518160000160006101000a81548160ff021916908360ff1602179055506020820151816001015560408201518160020160006101000a81548173ffffffffffffffffffffffffffffffffffffffff021916908373ffffffffffffffffffffffffffffffffffffffff16021790555060608201518160020160146101000a81548160ff02191690831515021790555060808201518160020160156101000a81548160ff02191690831515021790555060a082015181600301555050505050565b6000809054906101000a900473ffffffffffffffffffffffffffffffffffffffff1673ffffffffffffffffffffffffffffffffffffffff163373ffffffffffffffffffffffffffffffffffffffff1614611815576040517f08c379a000000000000000000000000000000000000000000000000000000000815260040161180c9061237c565b60405180910390fd5b60026040518060200160405280838152509080600181540180825580915050906001820390600052602060002001600090919290919091506000820151816000019080519060200190611869929190611aed565b5050505050565b600460003373ffffffffffffffffffffffffffffffffffffffff1673ffffffffffffffffffffffffffffffffffffffff16815260200190815260200160002060008260ff1660ff16815260200190815260200160002060000160009054906101000a900460ff16611916576040517f08c379a000000000000000000000000000000000000000000000000000000000815260040161190d9061243c565b60405180910390fd5b600460003373ffffffffffffffffffffffffffffffffffffffff1673ffffffffffffffffffffffffffffffffffffffff16815260200190815260200160002060008260ff1660ff168152602001908152602001600020600101543410156119b2576040517f08c379a00000000000000000000000000000000000000000000000000000000081526004016119a99061241c565b60405180910390fd5b34600460003373ffffffffffffffffffffffffffffffffffffffff1673ffffffffffffffffffffffffffffffffffffffff16815260200190815260200160002060008360ff1660ff1681526020019081526020016000206002015401600460003373ffffffffffffffffffffffffffffffffffffffff1673ffffffffffffffffffffffffffffffffffffffff16815260200190815260200160002060008360ff1660ff1681526020019081526020016000206002018190555050565b6040518060c00160405280600060ff16815260200160008152602001600073ffffffffffffffffffffffffffffffffffffffff168152602001600015158152602001600015158152602001600081525090565b604051806080016040528060001515815260200160001515815260200160008152602001600081525090565b828054600181600116156101000203166002900490600052602060002090601f016020900481019282601f10611b2e57805160ff1916838001178555611b5c565b82800160010185558215611b5c579182015b82811115611b5b578251825591602001919060010190611b40565b5b509050611b699190611b6d565b5090565b611b8f91905b80821115611b8b576000816000905550600101611b73565b5090565b90565b600082601f830112611ba357600080fd5b8135611bb6611bb1826124e4565b6124b7565b91508082526020830160208301858383011115611bd257600080fd5b611bdd838284612648565b50505092915050565b600081359050611bf58161269b565b92915050565b600081359050611c0a816126b2565b92915050565b600060208284031215611c2257600080fd5b600082013567ffffffffffffffff811115611c3c57600080fd5b611c4884828501611b92565b91505092915050565b600060208284031215611c6357600080fd5b6000611c7184828501611bfb565b91505092915050565b60008060408385031215611c8d57600080fd5b6000611c9b85828601611bfb565b9250506020611cac85828601611be6565b9150509250929050565b6000611cc283836121ad565b60c08301905092915050565b6000611cda8383612228565b60808301905092915050565b6000611cf2838361227d565b905092915050565b611d03816125f3565b82525050565b6000611d1482612540565b611d1e818561259e565b9350611d2983612510565b8060005b83811015611d5a578151611d418882611cb6565b9750611d4c83612577565b925050600181019050611d2d565b5085935050505092915050565b6000611d728261254b565b611d7c81856125af565b9350611d8783612520565b8060005b83811015611db8578151611d9f8882611cce565b9750611daa83612584565b925050600181019050611d8b565b5085935050505092915050565b6000611dd082612556565b611dda81856125c0565b935083602082028501611dec85612530565b8060005b85811015611e285784840389528151611e098582611ce6565b9450611e1483612591565b925060208a01995050600181019050611df0565b50829750879550505050505092915050565b611e4381612605565b82525050565b6000611e548261256c565b611e5e81856125e2565b9350611e6e818560208601612657565b611e778161268a565b840191505092915050565b6000611e8d82612561565b611e9781856125d1565b9350611ea7818560208601612657565b611eb08161268a565b840191505092915050565b6000611ec86017836125e2565b91507f436c61696d20616c72656164792072656a6563746564210000000000000000006000830152602082019050919050565b6000611f086022836125e2565b91507f4f6e6c79206f776e6572732063616e2063616c6c20746869732066756e63746960008301527f6f6e0000000000000000000000000000000000000000000000000000000000006020830152604082019050919050565b6000611f6e6015836125e2565b91507f4e6f207375636820636c61696d206578697374732100000000000000000000006000830152602082019050919050565b6000611fae6019836125e2565b91507f496e737572616e636520616c726561647920636c61696d6564000000000000006000830152602082019050919050565b6000611fee602c836125e2565b91507f4f6e6c79206f776e657273206f7220706f6c6963652063616e2063616c6c207460008301527f6869732066756e6374696f6e00000000000000000000000000000000000000006020830152604082019050919050565b60006120546022836125e2565b91507f4f6e6c7920506f6c6963652063616e2063616c6c20746869732066756e63746960008301527f6f6e0000000000000000000000000000000000000000000000000000000000006020830152604082019050919050565b60006120ba600b836125e2565b91507f454d49206973206c6573730000000000000000000000000000000000000000006000830152602082019050919050565b60006120fa601b836125e2565b91507f496e737572616e6365206e6f74207075726368617365642079657400000000006000830152602082019050919050565b600061213a601b836125e2565b91507f496e737572616e636520616c72656164792070757263686173656400000000006000830152602082019050919050565b600061217a6017836125e2565b91507f436c61696d20616c726561647920617070726f766564210000000000000000006000830152602082019050919050565b60c0820160008201516121c360008501826122c5565b5060208201516121d660208501826122a7565b5060408201516121e96040850182611cfa565b5060608201516121fc6060850182611e3a565b50608082015161220f6080850182611e3a565b5060a082015161222260a08501826122a7565b50505050565b60808201600082015161223e6000850182611e3a565b5060208201516122516020850182611e3a565b50604082015161226460408501826122a7565b50606082015161227760608501826122a7565b50505050565b6000602083016000830151848203600086015261229a8282611e82565b9150508091505092915050565b6122b081612631565b82525050565b6122bf81612631565b82525050565b6122ce8161263b565b82525050565b600060208201905081810360008301526122ee8184611d09565b905092915050565b600060208201905081810360008301526123108184611d67565b905092915050565b600060208201905081810360008301526123328184611dc5565b905092915050565b600060208201905081810360008301526123548184611e49565b905092915050565b6000602082019050818103600083015261237581611ebb565b9050919050565b6000602082019050818103600083015261239581611efb565b9050919050565b600060208201905081810360008301526123b581611f61565b9050919050565b600060208201905081810360008301526123d581611fa1565b9050919050565b600060208201905081810360008301526123f581611fe1565b9050919050565b6000602082019050818103600083015261241581612047565b9050919050565b60006020820190508181036000830152612435816120ad565b9050919050565b60006020820190508181036000830152612455816120ed565b9050919050565b600060208201905081810360008301526124758161212d565b9050919050565b600060208201905081810360008301526124958161216d565b9050919050565b60006020820190506124b160008301846122b6565b92915050565b6000604051905081810181811067ffffffffffffffff821117156124da57600080fd5b8060405250919050565b600067ffffffffffffffff8211156124fb57600080fd5b601f19601f8301169050602081019050919050565b6000819050602082019050919050565b6000819050602082019050919050565b6000819050602082019050919050565b600081519050919050565b600081519050919050565b600081519050919050565b600081519050919050565b600081519050919050565b6000602082019050919050565b6000602082019050919050565b6000602082019050919050565b600082825260208201905092915050565b600082825260208201905092915050565b600082825260208201905092915050565b600082825260208201905092915050565b600082825260208201905092915050565b60006125fe82612611565b9050919050565b60008115159050919050565b600073ffffffffffffffffffffffffffffffffffffffff82169050919050565b6000819050919050565b600060ff82169050919050565b82818337600083830152505050565b60005b8381101561267557808201518184015260208101905061265a565b83811115612684576000848401525b50505050565b6000601f19601f8301169050919050565b6126a481612631565b81146126af57600080fd5b50565b6126bb8161263b565b81146126c657600080fd5b5056fea365627a7a72315820e69f3dbf74eb1998d9ec6fb7ca80a48190cfb891010040c7b11c86e4a12fcfaf6c6578706572696d656e74616cf564736f6c63430005100040",
  "source": "pragma solidity >=0.4.21 <0.7.0;\r\npragma experimental ABIEncoderV2;\r\n\r\ncontract Insurance {\r\n    address payable private owner;\r\n    address private police;\r\n\r\n    Product[] private products;\r\n    Claim[] private allClaims;\r\n    mapping(address => mapping(uint8 => InsuranceDetails)) private insurance;\r\n    \r\n    constructor(address _police) public {\r\n        owner = msg.sender;\r\n        police = _police;\r\n    }\r\n    \r\n    struct Product {\r\n        string name;\r\n    }\r\n    \r\n    struct Claim {\r\n        uint8 productIndex;\r\n        uint256 amount;\r\n        address claimedBy;\r\n        bool isApproved;\r\n        bool isRejected;\r\n        uint time;\r\n    }\r\n\r\n    struct InsuranceDetails {\r\n        bool isPurchased;\r\n        bool isClaimed;\r\n        uint256 premium;\r\n        uint256 amount;\r\n    }\r\n    \r\n    modifier isPolice() {\r\n        require(msg.sender == police,\"Only Police can call this function\");\r\n        _;\r\n    }\r\n    \r\n    modifier isNotPolice() {\r\n        require(msg.sender != police,\"Police Cant purchase Insurance\");\r\n        _;\r\n    }\r\n    \r\n    modifier isOwner() {\r\n        require(msg.sender == owner, \"Only owners can call this function\");\r\n        _;\r\n    }\r\n\r\n    modifier isPolicyOrOwner() {\r\n        require(msg.sender == owner || msg.sender == police, \"Only owners or police can call this function\");\r\n        _;\r\n    }\r\n\r\n    function addProduct(string memory name) public isOwner {\r\n        products.push(Product(name));\r\n    }\r\n\r\n    function getProducts() public view returns(Product[] memory) {\r\n        return products;\r\n    }\r\n\r\n    function getMyInsurance() public view returns(InsuranceDetails[] memory) {\r\n        InsuranceDetails[] memory tempArray = new InsuranceDetails[](products.length);\r\n        uint8 k = 0;\r\n        for (uint8 i=0; i<products.length; i++) {\r\n            tempArray[k] = insurance[msg.sender][i];\r\n            k = k + 1;\r\n        }\r\n        return tempArray;\r\n    }\r\n\r\n    function getMyClaims() public view returns(Claim[] memory) {\r\n        Claim[] memory tempClaims = new Claim[](allClaims.length);\r\n        uint k = 0;\r\n        for (uint i=0; i<allClaims.length; i++) {\r\n            if (allClaims[i].claimedBy == msg.sender) {\r\n                tempClaims[k] = allClaims[i];\r\n                k = k + 1;\r\n            }\r\n        }\r\n        return tempClaims;\r\n    }\r\n\r\n    function getAllClaims() public view isPolicyOrOwner returns(Claim[] memory) {\r\n        return allClaims;\r\n    }\r\n    \r\n    function buyInsurance(uint8 productIndex, uint256 premium) public {\r\n        require(!insurance[msg.sender][productIndex].isPurchased, \"Insurance already purchased\");\r\n        insurance[msg.sender][productIndex].premium = premium;\r\n        insurance[msg.sender][productIndex].isPurchased = true;\r\n    }\r\n    \r\n    function payPremium(uint8 productIndex) public payable {\r\n        require(insurance[msg.sender][productIndex].isPurchased, \"Insurance not purchased yet\");\r\n        require(msg.value >= insurance[msg.sender][productIndex].premium, \"EMI is less\");\r\n        insurance[msg.sender][productIndex].amount = insurance[msg.sender][productIndex].amount + msg.value;\r\n    }\r\n    \r\n    function claimInsurance(uint8 productIndex, uint256 amount) public {\r\n        require(insurance[msg.sender][productIndex].isPurchased, \"Insurance not purchased yet\");\r\n        require(!insurance[msg.sender][productIndex].isClaimed, \"Insurance already claimed\");\r\n        insurance[msg.sender][productIndex].isClaimed = true;\r\n        allClaims.push(Claim(productIndex, amount, msg.sender, false, false, now));\r\n    }\r\n    \r\n    function approveInsurance(uint8 claimId) public isPolice {\r\n        require(allClaims.length > claimId, \"No such claim exists!\");\r\n        require(!allClaims[claimId].isApproved, \"Claim already approved!\");\r\n        require(!allClaims[claimId].isRejected, \"Claim already rejected!\");\r\n        allClaims[claimId].isApproved = true;\r\n        allClaims[claimId].time = now;\r\n        insurance[allClaims[claimId].claimedBy][allClaims[claimId].productIndex].isClaimed = false;\r\n        address payable claimer = address(uint160(allClaims[claimId].claimedBy));\r\n        claimer.transfer(allClaims[claimId].amount);\r\n    }\r\n\r\n    function rejectInsurance(uint8 claimId) public isPolice {\r\n        require(allClaims.length > claimId, \"No such claim exists!\");\r\n        require(!allClaims[claimId].isApproved, \"Claim already approved!\");\r\n        require(!allClaims[claimId].isRejected, \"Claim already rejected!\");\r\n        allClaims[claimId].isRejected = true;\r\n        allClaims[claimId].time = now;\r\n        insurance[allClaims[claimId].claimedBy][allClaims[claimId].productIndex].isClaimed = false;\r\n    }\r\n    \r\n    function closeCompany() public isOwner {\r\n        selfdestruct(owner);\r\n    }\r\n    \r\n    function checkUser() public view returns (string memory){\r\n        if(msg.sender == owner)\r\n            return \"owner\";\r\n        if(msg.sender == police)\r\n            return \"police\";\r\n        else \r\n            return \"user\";\r\n    }\r\n    \r\n    function addFunds() public payable isOwner {\r\n        //\r\n    }\r\n    \r\n    function getBalance() public view isOwner returns (uint256) {\r\n        return address(this).balance;\r\n    }\r\n\r\n}",
  "sourcePath": "C:/Users/samagana/Desktop/simple-insurance/contracts/Insurance.sol",
  "compiler": {
    "name": "solc",
    "version": "0.5.16+commit.9c3226ce.Emscripten.clang"
  },
  "schemaVersion": "3.2.3",
  "updatedAt": "2020-08-16T12:43:29.537Z",
  "networkType": "ethereum",
  "devdoc": {
    "methods": {}
  },
  "userdoc": {
    "methods": {}
  }
}