{
  "contractName": "Insurance",
  "abi": [
    {
      "inputs": [
        {
          "internalType": "address",
          "name": "_police",
          "type": "address"
        }
      ],
      "payable": false,
      "stateMutability": "nonpayable",
      "type": "constructor"
    },
    {
      "constant": false,
      "inputs": [
        {
          "internalType": "string",
          "name": "name",
          "type": "string"
        }
      ],
      "name": "addProduct",
      "outputs": [],
      "payable": false,
      "stateMutability": "nonpayable",
      "type": "function"
    },
    {
      "constant": true,
      "inputs": [],
      "name": "getProducts",
      "outputs": [
        {
          "components": [
            {
              "internalType": "string",
              "name": "name",
              "type": "string"
            }
          ],
          "internalType": "struct Insurance.Product[]",
          "name": "",
          "type": "tuple[]"
        }
      ],
      "payable": false,
      "stateMutability": "view",
      "type": "function"
    },
    {
      "constant": true,
      "inputs": [],
      "name": "getMyInsurance",
      "outputs": [
        {
          "components": [
            {
              "internalType": "bool",
              "name": "isPurchased",
              "type": "bool"
            },
            {
              "internalType": "bool",
              "name": "isClaimed",
              "type": "bool"
            },
            {
              "internalType": "uint256",
              "name": "premium",
              "type": "uint256"
            },
            {
              "internalType": "uint256",
              "name": "amount",
              "type": "uint256"
            }
          ],
          "internalType": "struct Insurance.InsuranceDetails[]",
          "name": "",
          "type": "tuple[]"
        }
      ],
      "payable": false,
      "stateMutability": "view",
      "type": "function"
    },
    {
      "constant": true,
      "inputs": [],
      "name": "getMyClaims",
      "outputs": [
        {
          "components": [
            {
              "internalType": "uint8",
              "name": "productIndex",
              "type": "uint8"
            },
            {
              "internalType": "uint256",
              "name": "amount",
              "type": "uint256"
            },
            {
              "internalType": "address",
              "name": "claimedBy",
              "type": "address"
            },
            {
              "internalType": "bool",
              "name": "isApproved",
              "type": "bool"
            },
            {
              "internalType": "bool",
              "name": "isRejected",
              "type": "bool"
            },
            {
              "internalType": "uint256",
              "name": "time",
              "type": "uint256"
            }
          ],
          "internalType": "struct Insurance.Claim[]",
          "name": "",
          "type": "tuple[]"
        }
      ],
      "payable": false,
      "stateMutability": "view",
      "type": "function"
    },
    {
      "constant": true,
      "inputs": [],
      "name": "getAllClaims",
      "outputs": [
        {
          "components": [
            {
              "internalType": "uint8",
              "name": "productIndex",
              "type": "uint8"
            },
            {
              "internalType": "uint256",
              "name": "amount",
              "type": "uint256"
            },
            {
              "internalType": "address",
              "name": "claimedBy",
              "type": "address"
            },
            {
              "internalType": "bool",
              "name": "isApproved",
              "type": "bool"
            },
            {
              "internalType": "bool",
              "name": "isRejected",
              "type": "bool"
            },
            {
              "internalType": "uint256",
              "name": "time",
              "type": "uint256"
            }
          ],
          "internalType": "struct Insurance.Claim[]",
          "name": "",
          "type": "tuple[]"
        }
      ],
      "payable": false,
      "stateMutability": "view",
      "type": "function"
    },
    {
      "constant": false,
      "inputs": [
        {
          "internalType": "uint8",
          "name": "productIndex",
          "type": "uint8"
        },
        {
          "internalType": "uint256",
          "name": "premium",
          "type": "uint256"
        }
      ],
      "name": "buyInsurance",
      "outputs": [],
      "payable": false,
      "stateMutability": "nonpayable",
      "type": "function"
    },
    {
      "constant": false,
      "inputs": [
        {
          "internalType": "uint8",
          "name": "productIndex",
          "type": "uint8"
        }
      ],
      "name": "payPremium",
      "outputs": [],
      "payable": true,
      "stateMutability": "payable",
      "type": "function"
    },
    {
      "constant": false,
      "inputs": [
        {
          "internalType": "uint8",
          "name": "productIndex",
          "type": "uint8"
        },
        {
          "internalType": "uint256",
          "name": "amount",
          "type": "uint256"
        }
      ],
      "name": "claimInsurance",
      "outputs": [],
      "payable": false,
      "stateMutability": "nonpayable",
      "type": "function"
    },
    {
      "constant": false,
      "inputs": [
        {
          "internalType": "uint8",
          "name": "claimId",
          "type": "uint8"
        }
      ],
      "name": "approveInsurance",
      "outputs": [],
      "payable": false,
      "stateMutability": "nonpayable",
      "type": "function"
    },
    {
      "constant": false,
      "inputs": [
        {
          "internalType": "uint8",
          "name": "claimId",
          "type": "uint8"
        }
      ],
      "name": "rejectInsurance",
      "outputs": [],
      "payable": false,
      "stateMutability": "nonpayable",
      "type": "function"
    },
    {
      "constant": false,
      "inputs": [],
      "name": "closeCompany",
      "outputs": [],
      "payable": false,
      "stateMutability": "nonpayable",
      "type": "function"
    },
    {
      "constant": true,
      "inputs": [],
      "name": "checkUser",
      "outputs": [
        {
          "internalType": "string",
          "name": "",
          "type": "string"
        }
      ],
      "payable": false,
      "stateMutability": "view",
      "type": "function"
    },
    {
      "constant": false,
      "inputs": [],
      "name": "addFunds",
      "outputs": [],
      "payable": true,
      "stateMutability": "payable",
      "type": "function"
    },
    {
      "constant": false,
      "inputs": [],
      "name": "transferToOwner",
      "outputs": [],
      "payable": false,
      "stateMutability": "nonpayable",
      "type": "function"
    },
    {
      "constant": true,
      "inputs": [],
      "name": "getBalance",
      "outputs": [
        {
          "internalType": "uint256",
          "name": "",
          "type": "uint256"
        }
      ],
      "payable": false,
      "stateMutability": "view",
      "type": "function"
    }
  ],
  "bytecode": "0x60806040523480156200001157600080fd5b5060405162002d5238038062002d528339818101604052620000379190810190620000d6565b336000806101000a81548173ffffffffffffffffffffffffffffffffffffffff021916908373ffffffffffffffffffffffffffffffffffffffff16021790555080600160006101000a81548173ffffffffffffffffffffffffffffffffffffffff021916908373ffffffffffffffffffffffffffffffffffffffff1602179055505062000150565b600081519050620000d08162000136565b92915050565b600060208284031215620000e957600080fd5b6000620000f984828501620000bf565b91505092915050565b60006200010f8262000116565b9050919050565b600073ffffffffffffffffffffffffffffffffffffffff82169050919050565b620001418162000102565b81146200014d57600080fd5b50565b612bf280620001606000396000f3fe6080604052600436106100e85760003560e01c80637500ad7b1161008a578063c29b2f2011610059578063c29b2f2014610277578063ccf2a0a3146102a2578063dfe00c51146102cb578063e28a392a146102f4576100e8565b80637500ad7b146101ee578063a26759cb14610217578063bf5969af14610221578063c15625471461024c576100e8565b80633078eb40116100c65780633078eb40146101465780635b23c27d1461016f5780635ca71cbe1461019a5780636a772b68146101c5576100e8565b8063068ffb31146100ed57806312065fe0146101045780632d90ae941461012f575b600080fd5b3480156100f957600080fd5b50610102610310565b005b34801561011057600080fd5b506101196103d9565b6040516101269190612982565b60405180910390f35b34801561013b57600080fd5b50610144610470565b005b34801561015257600080fd5b5061016d60048036036101689190810190612160565b610569565b005b34801561017b57600080fd5b506101846106e4565b60405161019191906127ba565b60405180910390f35b3480156101a657600080fd5b506101af6108e7565b6040516101bc91906127ba565b60405180910390f35b3480156101d157600080fd5b506101ec60048036036101e79190810190612137565b610a40565b005b3480156101fa57600080fd5b5061021560048036036102109190810190612137565b610fc5565b005b61021f61141d565b005b34801561022d57600080fd5b506102366114ae565b60405161024391906127dc565b60405180910390f35b34801561025857600080fd5b506102616115ef565b60405161026e9190612820565b60405180910390f35b34801561028357600080fd5b5061028c611752565b60405161029991906127fe565b60405180910390f35b3480156102ae57600080fd5b506102c960048036036102c49190810190612160565b61184f565b005b3480156102d757600080fd5b506102f260048036036102ed91908101906120f6565b611cbf565b005b61030e60048036036103099190810190612137565b611da9565b005b6000809054906101000a900473ffffffffffffffffffffffffffffffffffffffff1673ffffffffffffffffffffffffffffffffffffffff163373ffffffffffffffffffffffffffffffffffffffff161461039f576040517f08c379a000000000000000000000000000000000000000000000000000000000815260040161039690612862565b60405180910390fd5b6000809054906101000a900473ffffffffffffffffffffffffffffffffffffffff1673ffffffffffffffffffffffffffffffffffffffff16ff5b60008060009054906101000a900473ffffffffffffffffffffffffffffffffffffffff1673ffffffffffffffffffffffffffffffffffffffff163373ffffffffffffffffffffffffffffffffffffffff161461046a576040517f08c379a000000000000000000000000000000000000000000000000000000000815260040161046190612862565b60405180910390fd5b47905090565b6000809054906101000a900473ffffffffffffffffffffffffffffffffffffffff1673ffffffffffffffffffffffffffffffffffffffff163373ffffffffffffffffffffffffffffffffffffffff16146104ff576040517f08c379a00000000000000000000000000000000000000000000000000000000081526004016104f690612862565b60405180910390fd5b6000809054906101000a900473ffffffffffffffffffffffffffffffffffffffff1673ffffffffffffffffffffffffffffffffffffffff166108fc479081150290604051600060405180830381858888f19350505050158015610566573d6000803e3d6000fd5b50565b600460003373ffffffffffffffffffffffffffffffffffffffff1673ffffffffffffffffffffffffffffffffffffffff16815260200190815260200160002060008360ff1660ff16815260200190815260200160002060000160009054906101000a900460ff1615610610576040517f08c379a000000000000000000000000000000000000000000000000000000000815260040161060790612942565b60405180910390fd5b80600460003373ffffffffffffffffffffffffffffffffffffffff1673ffffffffffffffffffffffffffffffffffffffff16815260200190815260200160002060008460ff1660ff168152602001908152602001600020600101819055506001600460003373ffffffffffffffffffffffffffffffffffffffff1673ffffffffffffffffffffffffffffffffffffffff16815260200190815260200160002060008460ff1660ff16815260200190815260200160002060000160006101000a81548160ff0219169083151502179055505050565b60606000809054906101000a900473ffffffffffffffffffffffffffffffffffffffff1673ffffffffffffffffffffffffffffffffffffffff163373ffffffffffffffffffffffffffffffffffffffff16148061078e5750600160009054906101000a900473ffffffffffffffffffffffffffffffffffffffff1673ffffffffffffffffffffffffffffffffffffffff163373ffffffffffffffffffffffffffffffffffffffff16145b6107cd576040517f08c379a00000000000000000000000000000000000000000000000000000000081526004016107c4906128c2565b60405180910390fd5b6003805480602002602001604051908101604052809291908181526020016000905b828210156108de57838290600052602060002090600402016040518060c00160405290816000820160009054906101000a900460ff1660ff1660ff168152602001600182015481526020016002820160009054906101000a900473ffffffffffffffffffffffffffffffffffffffff1673ffffffffffffffffffffffffffffffffffffffff1673ffffffffffffffffffffffffffffffffffffffff1681526020016002820160149054906101000a900460ff161515151581526020016002820160159054906101000a900460ff16151515158152602001600382015481525050815260200190600101906107ef565b50505050905090565b6060600560003373ffffffffffffffffffffffffffffffffffffffff1673ffffffffffffffffffffffffffffffffffffffff168152602001908152602001600020805480602002602001604051908101604052809291908181526020016000905b82821015610a3757838290600052602060002090600402016040518060c00160405290816000820160009054906101000a900460ff1660ff1660ff168152602001600182015481526020016002820160009054906101000a900473ffffffffffffffffffffffffffffffffffffffff1673ffffffffffffffffffffffffffffffffffffffff1673ffffffffffffffffffffffffffffffffffffffff1681526020016002820160149054906101000a900460ff161515151581526020016002820160159054906101000a900460ff1615151515815260200160038201548152505081526020019060010190610948565b50505050905090565b600160009054906101000a900473ffffffffffffffffffffffffffffffffffffffff1673ffffffffffffffffffffffffffffffffffffffff163373ffffffffffffffffffffffffffffffffffffffff1614610ad0576040517f08c379a0000000000000000000000000000000000000000000000000000000008152600401610ac7906128e2565b60405180910390fd5b8060ff1660038054905011610b1a576040517f08c379a0000000000000000000000000000000000000000000000000000000008152600401610b1190612882565b60405180910390fd5b60038160ff1681548110610b2a57fe5b906000526020600020906004020160020160149054906101000a900460ff1615610b89576040517f08c379a0000000000000000000000000000000000000000000000000000000008152600401610b8090612962565b60405180910390fd5b60038160ff1681548110610b9957fe5b906000526020600020906004020160020160159054906101000a900460ff1615610bf8576040517f08c379a0000000000000000000000000000000000000000000000000000000008152600401610bef90612842565b60405180910390fd5b600160038260ff1681548110610c0a57fe5b906000526020600020906004020160020160146101000a81548160ff0219169083151502179055504260038260ff1681548110610c4357fe5b90600052602060002090600402016003018190555060016005600060038460ff1681548110610c6e57fe5b906000526020600020906004020160020160009054906101000a900473ffffffffffffffffffffffffffffffffffffffff1673ffffffffffffffffffffffffffffffffffffffff1673ffffffffffffffffffffffffffffffffffffffff1681526020019081526020016000208260ff1681548110610ce857fe5b906000526020600020906004020160020160146101000a81548160ff021916908315150217905550426005600060038460ff1681548110610d2557fe5b906000526020600020906004020160020160009054906101000a900473ffffffffffffffffffffffffffffffffffffffff1673ffffffffffffffffffffffffffffffffffffffff1673ffffffffffffffffffffffffffffffffffffffff1681526020019081526020016000208260ff1681548110610d9f57fe5b90600052602060002090600402016003018190555060006004600060038460ff1681548110610dca57fe5b906000526020600020906004020160020160009054906101000a900473ffffffffffffffffffffffffffffffffffffffff1673ffffffffffffffffffffffffffffffffffffffff1673ffffffffffffffffffffffffffffffffffffffff168152602001908152602001600020600060038460ff1681548110610e4857fe5b906000526020600020906004020160000160009054906101000a900460ff1660ff1660ff16815260200190815260200160002060000160016101000a81548160ff021916908315150217905550600060038260ff1681548110610ea757fe5b906000526020600020906004020160020160009054906101000a900473ffffffffffffffffffffffffffffffffffffffff1690508073ffffffffffffffffffffffffffffffffffffffff166108fc6005600060038660ff1681548110610f0957fe5b906000526020600020906004020160020160009054906101000a900473ffffffffffffffffffffffffffffffffffffffff1673ffffffffffffffffffffffffffffffffffffffff1673ffffffffffffffffffffffffffffffffffffffff1681526020019081526020016000208460ff1681548110610f8357fe5b9060005260206000209060040201600101549081150290604051600060405180830381858888f19350505050158015610fc0573d6000803e3d6000fd5b505050565b600160009054906101000a900473ffffffffffffffffffffffffffffffffffffffff1673ffffffffffffffffffffffffffffffffffffffff163373ffffffffffffffffffffffffffffffffffffffff1614611055576040517f08c379a000000000000000000000000000000000000000000000000000000000815260040161104c906128e2565b60405180910390fd5b8060ff166003805490501161109f576040517f08c379a000000000000000000000000000000000000000000000000000000000815260040161109690612882565b60405180910390fd5b60038160ff16815481106110af57fe5b906000526020600020906004020160020160149054906101000a900460ff161561110e576040517f08c379a000000000000000000000000000000000000000000000000000000000815260040161110590612962565b60405180910390fd5b60038160ff168154811061111e57fe5b906000526020600020906004020160020160159054906101000a900460ff161561117d576040517f08c379a000000000000000000000000000000000000000000000000000000000815260040161117490612842565b60405180910390fd5b600160038260ff168154811061118f57fe5b906000526020600020906004020160020160156101000a81548160ff0219169083151502179055504260038260ff16815481106111c857fe5b90600052602060002090600402016003018190555060016005600060038460ff16815481106111f357fe5b906000526020600020906004020160020160009054906101000a900473ffffffffffffffffffffffffffffffffffffffff1673ffffffffffffffffffffffffffffffffffffffff1673ffffffffffffffffffffffffffffffffffffffff1681526020019081526020016000208260ff168154811061126d57fe5b906000526020600020906004020160020160156101000a81548160ff021916908315150217905550426005600060038460ff16815481106112aa57fe5b906000526020600020906004020160020160009054906101000a900473ffffffffffffffffffffffffffffffffffffffff1673ffffffffffffffffffffffffffffffffffffffff1673ffffffffffffffffffffffffffffffffffffffff1681526020019081526020016000208260ff168154811061132457fe5b90600052602060002090600402016003018190555060006004600060038460ff168154811061134f57fe5b906000526020600020906004020160020160009054906101000a900473ffffffffffffffffffffffffffffffffffffffff1673ffffffffffffffffffffffffffffffffffffffff1673ffffffffffffffffffffffffffffffffffffffff168152602001908152602001600020600060038460ff16815481106113cd57fe5b906000526020600020906004020160000160009054906101000a900460ff1660ff1660ff16815260200190815260200160002060000160016101000a81548160ff02191690831515021790555050565b6000809054906101000a900473ffffffffffffffffffffffffffffffffffffffff1673ffffffffffffffffffffffffffffffffffffffff163373ffffffffffffffffffffffffffffffffffffffff16146114ac576040517f08c379a00000000000000000000000000000000000000000000000000000000081526004016114a390612862565b60405180910390fd5b565b6060806002805490506040519080825280602002602001820160405280156114f057816020015b6114dd611fa7565b8152602001906001900390816114d55790505b509050600080905060008090505b6002805490508160ff1610156115e657600460003373ffffffffffffffffffffffffffffffffffffffff1673ffffffffffffffffffffffffffffffffffffffff16815260200190815260200160002060008260ff1660ff1681526020019081526020016000206040518060800160405290816000820160009054906101000a900460ff161515151581526020016000820160019054906101000a900460ff1615151515815260200160018201548152602001600282015481525050838360ff16815181106115c857fe5b602002602001018190525060018201915080806001019150506114fe565b50819250505090565b60606000809054906101000a900473ffffffffffffffffffffffffffffffffffffffff1673ffffffffffffffffffffffffffffffffffffffff163373ffffffffffffffffffffffffffffffffffffffff161415611683576040518060400160405280600581526020017f6f776e6572000000000000000000000000000000000000000000000000000000815250905061174f565b600160009054906101000a900473ffffffffffffffffffffffffffffffffffffffff1673ffffffffffffffffffffffffffffffffffffffff163373ffffffffffffffffffffffffffffffffffffffff161415611716576040518060400160405280600681526020017f706f6c6963650000000000000000000000000000000000000000000000000000815250905061174f565b6040518060400160405280600481526020017f757365720000000000000000000000000000000000000000000000000000000081525090505b90565b60606002805480602002602001604051908101604052809291908181526020016000905b8282101561184657838290600052602060002001604051806020016040529081600082018054600181600116156101000203166002900480601f01602080910402602001604051908101604052809291908181526020018280546001816001161561010002031660029004801561182e5780601f106118035761010080835404028352916020019161182e565b820191906000526020600020905b81548152906001019060200180831161181157829003601f168201915b50505050508152505081526020019060010190611776565b50505050905090565b600460003373ffffffffffffffffffffffffffffffffffffffff1673ffffffffffffffffffffffffffffffffffffffff16815260200190815260200160002060008360ff1660ff16815260200190815260200160002060000160009054906101000a900460ff166118f5576040517f08c379a00000000000000000000000000000000000000000000000000000000081526004016118ec90612922565b60405180910390fd5b600460003373ffffffffffffffffffffffffffffffffffffffff1673ffffffffffffffffffffffffffffffffffffffff16815260200190815260200160002060008360ff1660ff16815260200190815260200160002060000160019054906101000a900460ff161561199c576040517f08c379a0000000000000000000000000000000000000000000000000000000008152600401611993906128a2565b60405180910390fd5b6001600460003373ffffffffffffffffffffffffffffffffffffffff1673ffffffffffffffffffffffffffffffffffffffff16815260200190815260200160002060008460ff1660ff16815260200190815260200160002060000160016101000a81548160ff021916908315150217905550600560003373ffffffffffffffffffffffffffffffffffffffff1673ffffffffffffffffffffffffffffffffffffffff1681526020019081526020016000206040518060c001604052808460ff1681526020018381526020013373ffffffffffffffffffffffffffffffffffffffff168152602001600015158152602001600015158152602001428152509080600181540180825580915050906001820390600052602060002090600402016000909192909190915060008201518160000160006101000a81548160ff021916908360ff1602179055506020820151816001015560408201518160020160006101000a81548173ffffffffffffffffffffffffffffffffffffffff021916908373ffffffffffffffffffffffffffffffffffffffff16021790555060608201518160020160146101000a81548160ff02191690831515021790555060808201518160020160156101000a81548160ff02191690831515021790555060a0820151816003015550505060036040518060c001604052808460ff1681526020018381526020013373ffffffffffffffffffffffffffffffffffffffff168152602001600015158152602001600015158152602001428152509080600181540180825580915050906001820390600052602060002090600402016000909192909190915060008201518160000160006101000a81548160ff021916908360ff1602179055506020820151816001015560408201518160020160006101000a81548173ffffffffffffffffffffffffffffffffffffffff021916908373ffffffffffffffffffffffffffffffffffffffff16021790555060608201518160020160146101000a81548160ff02191690831515021790555060808201518160020160156101000a81548160ff02191690831515021790555060a082015181600301555050505050565b6000809054906101000a900473ffffffffffffffffffffffffffffffffffffffff1673ffffffffffffffffffffffffffffffffffffffff163373ffffffffffffffffffffffffffffffffffffffff1614611d4e576040517f08c379a0000000000000000000000000000000000000000000000000000000008152600401611d4590612862565b60405180910390fd5b60026040518060200160405280838152509080600181540180825580915050906001820390600052602060002001600090919290919091506000820151816000019080519060200190611da2929190611fd3565b5050505050565b600460003373ffffffffffffffffffffffffffffffffffffffff1673ffffffffffffffffffffffffffffffffffffffff16815260200190815260200160002060008260ff1660ff16815260200190815260200160002060000160009054906101000a900460ff16611e4f576040517f08c379a0000000000000000000000000000000000000000000000000000000008152600401611e4690612922565b60405180910390fd5b600460003373ffffffffffffffffffffffffffffffffffffffff1673ffffffffffffffffffffffffffffffffffffffff16815260200190815260200160002060008260ff1660ff16815260200190815260200160002060010154341015611eeb576040517f08c379a0000000000000000000000000000000000000000000000000000000008152600401611ee290612902565b60405180910390fd5b34600460003373ffffffffffffffffffffffffffffffffffffffff1673ffffffffffffffffffffffffffffffffffffffff16815260200190815260200160002060008360ff1660ff1681526020019081526020016000206002015401600460003373ffffffffffffffffffffffffffffffffffffffff1673ffffffffffffffffffffffffffffffffffffffff16815260200190815260200160002060008360ff1660ff1681526020019081526020016000206002018190555050565b604051806080016040528060001515815260200160001515815260200160008152602001600081525090565b828054600181600116156101000203166002900490600052602060002090601f016020900481019282601f1061201457805160ff1916838001178555612042565b82800160010185558215612042579182015b82811115612041578251825591602001919060010190612026565b5b50905061204f9190612053565b5090565b61207591905b80821115612071576000816000905550600101612059565b5090565b90565b600082601f83011261208957600080fd5b813561209c612097826129ca565b61299d565b915080825260208301602083018583830111156120b857600080fd5b6120c3838284612b2e565b50505092915050565b6000813590506120db81612b81565b92915050565b6000813590506120f081612b98565b92915050565b60006020828403121561210857600080fd5b600082013567ffffffffffffffff81111561212257600080fd5b61212e84828501612078565b91505092915050565b60006020828403121561214957600080fd5b6000612157848285016120e1565b91505092915050565b6000806040838503121561217357600080fd5b6000612181858286016120e1565b9250506020612192858286016120cc565b9150509250929050565b60006121a88383612693565b60c08301905092915050565b60006121c0838361270e565b60808301905092915050565b60006121d88383612763565b905092915050565b6121e981612ad9565b82525050565b60006121fa82612a26565b6122048185612a84565b935061220f836129f6565b8060005b83811015612240578151612227888261219c565b975061223283612a5d565b925050600181019050612213565b5085935050505092915050565b600061225882612a31565b6122628185612a95565b935061226d83612a06565b8060005b8381101561229e57815161228588826121b4565b975061229083612a6a565b925050600181019050612271565b5085935050505092915050565b60006122b682612a3c565b6122c08185612aa6565b9350836020820285016122d285612a16565b8060005b8581101561230e57848403895281516122ef85826121cc565b94506122fa83612a77565b925060208a019950506001810190506122d6565b50829750879550505050505092915050565b61232981612aeb565b82525050565b600061233a82612a52565b6123448185612ac8565b9350612354818560208601612b3d565b61235d81612b70565b840191505092915050565b600061237382612a47565b61237d8185612ab7565b935061238d818560208601612b3d565b61239681612b70565b840191505092915050565b60006123ae601783612ac8565b91507f436c61696d20616c72656164792072656a6563746564210000000000000000006000830152602082019050919050565b60006123ee602283612ac8565b91507f4f6e6c79206f776e6572732063616e2063616c6c20746869732066756e63746960008301527f6f6e0000000000000000000000000000000000000000000000000000000000006020830152604082019050919050565b6000612454601583612ac8565b91507f4e6f207375636820636c61696d206578697374732100000000000000000000006000830152602082019050919050565b6000612494601983612ac8565b91507f496e737572616e636520616c726561647920636c61696d6564000000000000006000830152602082019050919050565b60006124d4602c83612ac8565b91507f4f6e6c79206f776e657273206f7220706f6c6963652063616e2063616c6c207460008301527f6869732066756e6374696f6e00000000000000000000000000000000000000006020830152604082019050919050565b600061253a602283612ac8565b91507f4f6e6c7920506f6c6963652063616e2063616c6c20746869732066756e63746960008301527f6f6e0000000000000000000000000000000000000000000000000000000000006020830152604082019050919050565b60006125a0600b83612ac8565b91507f454d49206973206c6573730000000000000000000000000000000000000000006000830152602082019050919050565b60006125e0601b83612ac8565b91507f496e737572616e6365206e6f74207075726368617365642079657400000000006000830152602082019050919050565b6000612620601b83612ac8565b91507f496e737572616e636520616c72656164792070757263686173656400000000006000830152602082019050919050565b6000612660601783612ac8565b91507f436c61696d20616c726561647920617070726f766564210000000000000000006000830152602082019050919050565b60c0820160008201516126a960008501826127ab565b5060208201516126bc602085018261278d565b5060408201516126cf60408501826121e0565b5060608201516126e26060850182612320565b5060808201516126f56080850182612320565b5060a082015161270860a085018261278d565b50505050565b6080820160008201516127246000850182612320565b5060208201516127376020850182612320565b50604082015161274a604085018261278d565b50606082015161275d606085018261278d565b50505050565b600060208301600083015184820360008601526127808282612368565b9150508091505092915050565b61279681612b17565b82525050565b6127a581612b17565b82525050565b6127b481612b21565b82525050565b600060208201905081810360008301526127d481846121ef565b905092915050565b600060208201905081810360008301526127f6818461224d565b905092915050565b6000602082019050818103600083015261281881846122ab565b905092915050565b6000602082019050818103600083015261283a818461232f565b905092915050565b6000602082019050818103600083015261285b816123a1565b9050919050565b6000602082019050818103600083015261287b816123e1565b9050919050565b6000602082019050818103600083015261289b81612447565b9050919050565b600060208201905081810360008301526128bb81612487565b9050919050565b600060208201905081810360008301526128db816124c7565b9050919050565b600060208201905081810360008301526128fb8161252d565b9050919050565b6000602082019050818103600083015261291b81612593565b9050919050565b6000602082019050818103600083015261293b816125d3565b9050919050565b6000602082019050818103600083015261295b81612613565b9050919050565b6000602082019050818103600083015261297b81612653565b9050919050565b6000602082019050612997600083018461279c565b92915050565b6000604051905081810181811067ffffffffffffffff821117156129c057600080fd5b8060405250919050565b600067ffffffffffffffff8211156129e157600080fd5b601f19601f8301169050602081019050919050565b6000819050602082019050919050565b6000819050602082019050919050565b6000819050602082019050919050565b600081519050919050565b600081519050919050565b600081519050919050565b600081519050919050565b600081519050919050565b6000602082019050919050565b6000602082019050919050565b6000602082019050919050565b600082825260208201905092915050565b600082825260208201905092915050565b600082825260208201905092915050565b600082825260208201905092915050565b600082825260208201905092915050565b6000612ae482612af7565b9050919050565b60008115159050919050565b600073ffffffffffffffffffffffffffffffffffffffff82169050919050565b6000819050919050565b600060ff82169050919050565b82818337600083830152505050565b60005b83811015612b5b578082015181840152602081019050612b40565b83811115612b6a576000848401525b50505050565b6000601f19601f8301169050919050565b612b8a81612b17565b8114612b9557600080fd5b50565b612ba181612b21565b8114612bac57600080fd5b5056fea365627a7a723158208afe849d76088f4e2d103248a62b6067533d40bd1a67c421d3f5f8d2f5f7b58b6c6578706572696d656e74616cf564736f6c63430005100040",
  "source": "pragma solidity >=0.4.21 <0.7.0;\npragma experimental ABIEncoderV2;\n\ncontract Insurance {\n    address payable private owner;\n    address private police;\n\n    Product[] private products;\n    Claim[] private allClaims;\n    mapping(address => mapping(uint8 => InsuranceDetails)) private insurance;\n    mapping(address => Claim[]) private myClaims;\n    \n    constructor(address _police) public {\n        owner = msg.sender;\n        police = _police;\n    }\n    \n    struct Product {\n        string name;\n    }\n    \n    struct Claim {\n        uint8 productIndex;\n        uint256 amount;\n        address claimedBy;\n        bool isApproved;\n        bool isRejected;\n        uint time;\n    }\n\n    struct InsuranceDetails {\n        bool isPurchased;\n        bool isClaimed;\n        uint256 premium;\n        uint256 amount;\n    }\n    \n    modifier isPolice() {\n        require(msg.sender == police,\"Only Police can call this function\");\n        _;\n    }\n    \n    modifier isNotPolice() {\n        require(msg.sender != police,\"Police Cant purchase Insurance\");\n        _;\n    }\n    \n    modifier isOwner() {\n        require(msg.sender == owner, \"Only owners can call this function\");\n        _;\n    }\n\n    modifier isPolicyOrOwner() {\n        require(msg.sender == owner || msg.sender == police, \"Only owners or police can call this function\");\n        _;\n    }\n\n    function addProduct(string memory name) public isOwner {\n        products.push(Product(name));\n    }\n\n    function getProducts() public view returns(Product[] memory) {\n        return products;\n    }\n\n    function getMyInsurance() public view returns(InsuranceDetails[] memory) {\n        InsuranceDetails[] memory tempArray = new InsuranceDetails[](products.length);\n        uint8 k = 0;\n        for (uint8 i=0; i<products.length; i++) {\n            tempArray[k] = insurance[msg.sender][i];\n            k = k + 1;\n        }\n        return tempArray;\n    }\n\n    function getMyClaims() public view returns(Claim[] memory) {\n        // Claim[] memory tempClaims = new Claim[](allClaims.length);\n        // uint k = 0;\n        // for (uint i=0; i<allClaims.length; i++) {\n        //     if (allClaims[i].claimedBy == msg.sender) {\n        //         tempClaims[k] = allClaims[i];\n        //         k = k + 1;\n        //     }\n        // }\n        // return tempClaims;\n        return myClaims[msg.sender];\n    }\n\n    function getAllClaims() public view isPolicyOrOwner returns(Claim[] memory) {\n        return allClaims;\n    }\n    \n    function buyInsurance(uint8 productIndex, uint256 premium) public {\n        require(!insurance[msg.sender][productIndex].isPurchased, \"Insurance already purchased\");\n        insurance[msg.sender][productIndex].premium = premium;\n        insurance[msg.sender][productIndex].isPurchased = true;\n    }\n    \n    function payPremium(uint8 productIndex) public payable {\n        require(insurance[msg.sender][productIndex].isPurchased, \"Insurance not purchased yet\");\n        require(msg.value >= insurance[msg.sender][productIndex].premium, \"EMI is less\");\n        insurance[msg.sender][productIndex].amount = insurance[msg.sender][productIndex].amount + msg.value;\n    }\n    \n    function claimInsurance(uint8 productIndex, uint256 amount) public {\n        require(insurance[msg.sender][productIndex].isPurchased, \"Insurance not purchased yet\");\n        require(!insurance[msg.sender][productIndex].isClaimed, \"Insurance already claimed\");\n        insurance[msg.sender][productIndex].isClaimed = true;\n        myClaims[msg.sender].push(Claim(productIndex, amount, msg.sender, false, false, now));\n        allClaims.push(Claim(productIndex, amount, msg.sender, false, false, now));\n    }\n    \n    function approveInsurance(uint8 claimId) public isPolice {\n        require(allClaims.length > claimId, \"No such claim exists!\");\n        require(!allClaims[claimId].isApproved, \"Claim already approved!\");\n        require(!allClaims[claimId].isRejected, \"Claim already rejected!\");\n        allClaims[claimId].isApproved = true;\n        allClaims[claimId].time = now;\n        myClaims[address(allClaims[claimId].claimedBy)][claimId].isApproved = true;\n        myClaims[address(allClaims[claimId].claimedBy)][claimId].time = now;\n        insurance[allClaims[claimId].claimedBy][allClaims[claimId].productIndex].isClaimed = false;\n        address payable claimer = address(uint160(allClaims[claimId].claimedBy));\n        claimer.transfer(myClaims[address(allClaims[claimId].claimedBy)][claimId].amount);\n    }\n\n    function rejectInsurance(uint8 claimId) public isPolice {\n        require(allClaims.length > claimId, \"No such claim exists!\");\n        require(!allClaims[claimId].isApproved, \"Claim already approved!\");\n        require(!allClaims[claimId].isRejected, \"Claim already rejected!\");\n        allClaims[claimId].isRejected = true;\n        allClaims[claimId].time = now;\n        myClaims[address(allClaims[claimId].claimedBy)][claimId].isRejected = true;\n        myClaims[address(allClaims[claimId].claimedBy)][claimId].time = now;\n        insurance[allClaims[claimId].claimedBy][allClaims[claimId].productIndex].isClaimed = false;\n    }\n    \n    function closeCompany() public isOwner {\n        selfdestruct(owner);\n    }\n    \n    function checkUser() public view returns (string memory){\n        if(msg.sender == owner)\n            return \"owner\";\n        if(msg.sender == police)\n            return \"police\";\n        else \n            return \"user\";\n    }\n    \n    function addFunds() public payable isOwner {\n        //\n    }\n\n    function transferToOwner() public isOwner{\n        owner.transfer(address(this).balance);\n    }\n    \n    function getBalance() public view isOwner returns (uint256) {\n        return address(this).balance;\n    }\n\n}",
  "sourcePath": "/media/arjun/Miscellaneous/bchain/blockchain-insurance/contracts/Insurance.sol",
  "compiler": {
    "name": "solc",
    "version": "0.5.16+commit.9c3226ce.Emscripten.clang"
  },
  "schemaVersion": "3.2.3",
  "updatedAt": "2020-08-16T19:34:29.726Z",
  "networkType": "ethereum",
  "devdoc": {
    "methods": {}
  },
  "userdoc": {
    "methods": {}
  }
}