{
  "contractName": "Insurance",
  "abi": [
    {
      "inputs": [
        {
          "internalType": "address",
          "name": "_police",
          "type": "address"
        }
      ],
      "payable": false,
      "stateMutability": "nonpayable",
      "type": "constructor"
    },
    {
      "constant": false,
      "inputs": [
        {
          "internalType": "string",
          "name": "name",
          "type": "string"
        }
      ],
      "name": "addProduct",
      "outputs": [],
      "payable": false,
      "stateMutability": "nonpayable",
      "type": "function"
    },
    {
      "constant": true,
      "inputs": [],
      "name": "getProducts",
      "outputs": [
        {
          "components": [
            {
              "internalType": "string",
              "name": "name",
              "type": "string"
            }
          ],
          "internalType": "struct Insurance.Product[]",
          "name": "",
          "type": "tuple[]"
        }
      ],
      "payable": false,
      "stateMutability": "view",
      "type": "function"
    },
    {
      "constant": true,
      "inputs": [],
      "name": "getMyInsurance",
      "outputs": [
        {
          "components": [
            {
              "internalType": "bool",
              "name": "isPurchased",
              "type": "bool"
            },
            {
              "internalType": "bool",
              "name": "isClaimed",
              "type": "bool"
            },
            {
              "internalType": "uint256",
              "name": "premium",
              "type": "uint256"
            },
            {
              "internalType": "uint256",
              "name": "amount",
              "type": "uint256"
            }
          ],
          "internalType": "struct Insurance.InsuranceDetails[]",
          "name": "",
          "type": "tuple[]"
        }
      ],
      "payable": false,
      "stateMutability": "view",
      "type": "function"
    },
    {
      "constant": true,
      "inputs": [],
      "name": "getMyClaims",
      "outputs": [
        {
          "components": [
            {
              "internalType": "uint8",
              "name": "productIndex",
              "type": "uint8"
            },
            {
              "internalType": "uint256",
              "name": "amount",
              "type": "uint256"
            },
            {
              "internalType": "address",
              "name": "claimedBy",
              "type": "address"
            },
            {
              "internalType": "bool",
              "name": "isApproved",
              "type": "bool"
            },
            {
              "internalType": "bool",
              "name": "isRejected",
              "type": "bool"
            },
            {
              "internalType": "uint256",
              "name": "time",
              "type": "uint256"
            }
          ],
          "internalType": "struct Insurance.Claim[]",
          "name": "",
          "type": "tuple[]"
        }
      ],
      "payable": false,
      "stateMutability": "view",
      "type": "function"
    },
    {
      "constant": true,
      "inputs": [],
      "name": "getAllClaims",
      "outputs": [
        {
          "components": [
            {
              "internalType": "uint8",
              "name": "productIndex",
              "type": "uint8"
            },
            {
              "internalType": "uint256",
              "name": "amount",
              "type": "uint256"
            },
            {
              "internalType": "address",
              "name": "claimedBy",
              "type": "address"
            },
            {
              "internalType": "bool",
              "name": "isApproved",
              "type": "bool"
            },
            {
              "internalType": "bool",
              "name": "isRejected",
              "type": "bool"
            },
            {
              "internalType": "uint256",
              "name": "time",
              "type": "uint256"
            }
          ],
          "internalType": "struct Insurance.Claim[]",
          "name": "",
          "type": "tuple[]"
        }
      ],
      "payable": false,
      "stateMutability": "view",
      "type": "function"
    },
    {
      "constant": false,
      "inputs": [
        {
          "internalType": "uint8",
          "name": "productIndex",
          "type": "uint8"
        },
        {
          "internalType": "uint256",
          "name": "premium",
          "type": "uint256"
        }
      ],
      "name": "buyInsurance",
      "outputs": [],
      "payable": false,
      "stateMutability": "nonpayable",
      "type": "function"
    },
    {
      "constant": false,
      "inputs": [
        {
          "internalType": "uint8",
          "name": "productIndex",
          "type": "uint8"
        }
      ],
      "name": "payPremium",
      "outputs": [],
      "payable": true,
      "stateMutability": "payable",
      "type": "function"
    },
    {
      "constant": false,
      "inputs": [
        {
          "internalType": "uint8",
          "name": "productIndex",
          "type": "uint8"
        },
        {
          "internalType": "uint256",
          "name": "amount",
          "type": "uint256"
        }
      ],
      "name": "claimInsurance",
      "outputs": [],
      "payable": false,
      "stateMutability": "nonpayable",
      "type": "function"
    },
    {
      "constant": false,
      "inputs": [
        {
          "internalType": "uint8",
          "name": "claimId",
          "type": "uint8"
        }
      ],
      "name": "approveInsurance",
      "outputs": [],
      "payable": false,
      "stateMutability": "nonpayable",
      "type": "function"
    },
    {
      "constant": false,
      "inputs": [
        {
          "internalType": "uint8",
          "name": "claimId",
          "type": "uint8"
        }
      ],
      "name": "rejectInsurance",
      "outputs": [],
      "payable": false,
      "stateMutability": "nonpayable",
      "type": "function"
    },
    {
      "constant": false,
      "inputs": [],
      "name": "closeCompany",
      "outputs": [],
      "payable": false,
      "stateMutability": "nonpayable",
      "type": "function"
    },
    {
      "constant": true,
      "inputs": [],
      "name": "checkUser",
      "outputs": [
        {
          "internalType": "string",
          "name": "",
          "type": "string"
        }
      ],
      "payable": false,
      "stateMutability": "view",
      "type": "function"
    },
    {
      "constant": false,
      "inputs": [],
      "name": "addFunds",
      "outputs": [],
      "payable": true,
      "stateMutability": "payable",
      "type": "function"
    },
    {
      "constant": false,
      "inputs": [],
      "name": "transferToOwner",
      "outputs": [],
      "payable": false,
      "stateMutability": "nonpayable",
      "type": "function"
    },
    {
      "constant": true,
      "inputs": [],
      "name": "getBalance",
      "outputs": [
        {
          "internalType": "uint256",
          "name": "",
          "type": "uint256"
        }
      ],
      "payable": false,
      "stateMutability": "view",
      "type": "function"
    }
  ],
  "bytecode": "0x60806040523480156200001157600080fd5b5060405162002b7838038062002b788339818101604052620000379190810190620000d6565b336000806101000a81548173ffffffffffffffffffffffffffffffffffffffff021916908373ffffffffffffffffffffffffffffffffffffffff16021790555080600160006101000a81548173ffffffffffffffffffffffffffffffffffffffff021916908373ffffffffffffffffffffffffffffffffffffffff1602179055505062000150565b600081519050620000d08162000136565b92915050565b600060208284031215620000e957600080fd5b6000620000f984828501620000bf565b91505092915050565b60006200010f8262000116565b9050919050565b600073ffffffffffffffffffffffffffffffffffffffff82169050919050565b620001418162000102565b81146200014d57600080fd5b50565b612a1880620001606000396000f3fe6080604052600436106100e85760003560e01c80637500ad7b1161008a578063c29b2f2011610059578063c29b2f2014610277578063ccf2a0a3146102a2578063dfe00c51146102cb578063e28a392a146102f4576100e8565b80637500ad7b146101ee578063a26759cb14610217578063bf5969af14610221578063c15625471461024c576100e8565b80633078eb40116100c65780633078eb40146101465780635b23c27d1461016f5780635ca71cbe1461019a5780636a772b68146101c5576100e8565b8063068ffb31146100ed57806312065fe0146101045780632d90ae941461012f575b600080fd5b3480156100f957600080fd5b50610102610310565b005b34801561011057600080fd5b506101196103d9565b60405161012691906127a8565b60405180910390f35b34801561013b57600080fd5b50610144610470565b005b34801561015257600080fd5b5061016d60048036036101689190810190611f86565b610569565b005b34801561017b57600080fd5b506101846106e4565b60405161019191906125e0565b60405180910390f35b3480156101a657600080fd5b506101af6108e7565b6040516101bc91906125e0565b60405180910390f35b3480156101d157600080fd5b506101ec60048036036101e79190810190611f5d565b610a40565b005b3480156101fa57600080fd5b5061021560048036036102109190810190611f5d565b610f47565b005b61021f611243565b005b34801561022d57600080fd5b506102366112d4565b6040516102439190612602565b60405180910390f35b34801561025857600080fd5b50610261611415565b60405161026e9190612646565b60405180910390f35b34801561028357600080fd5b5061028c611578565b6040516102999190612624565b60405180910390f35b3480156102ae57600080fd5b506102c960048036036102c49190810190611f86565b611675565b005b3480156102d757600080fd5b506102f260048036036102ed9190810190611f1c565b611ae5565b005b61030e60048036036103099190810190611f5d565b611bcf565b005b6000809054906101000a900473ffffffffffffffffffffffffffffffffffffffff1673ffffffffffffffffffffffffffffffffffffffff163373ffffffffffffffffffffffffffffffffffffffff161461039f576040517f08c379a000000000000000000000000000000000000000000000000000000000815260040161039690612688565b60405180910390fd5b6000809054906101000a900473ffffffffffffffffffffffffffffffffffffffff1673ffffffffffffffffffffffffffffffffffffffff16ff5b60008060009054906101000a900473ffffffffffffffffffffffffffffffffffffffff1673ffffffffffffffffffffffffffffffffffffffff163373ffffffffffffffffffffffffffffffffffffffff161461046a576040517f08c379a000000000000000000000000000000000000000000000000000000000815260040161046190612688565b60405180910390fd5b47905090565b6000809054906101000a900473ffffffffffffffffffffffffffffffffffffffff1673ffffffffffffffffffffffffffffffffffffffff163373ffffffffffffffffffffffffffffffffffffffff16146104ff576040517f08c379a00000000000000000000000000000000000000000000000000000000081526004016104f690612688565b60405180910390fd5b6000809054906101000a900473ffffffffffffffffffffffffffffffffffffffff1673ffffffffffffffffffffffffffffffffffffffff166108fc479081150290604051600060405180830381858888f19350505050158015610566573d6000803e3d6000fd5b50565b600460003373ffffffffffffffffffffffffffffffffffffffff1673ffffffffffffffffffffffffffffffffffffffff16815260200190815260200160002060008360ff1660ff16815260200190815260200160002060000160009054906101000a900460ff1615610610576040517f08c379a000000000000000000000000000000000000000000000000000000000815260040161060790612768565b60405180910390fd5b80600460003373ffffffffffffffffffffffffffffffffffffffff1673ffffffffffffffffffffffffffffffffffffffff16815260200190815260200160002060008460ff1660ff168152602001908152602001600020600101819055506001600460003373ffffffffffffffffffffffffffffffffffffffff1673ffffffffffffffffffffffffffffffffffffffff16815260200190815260200160002060008460ff1660ff16815260200190815260200160002060000160006101000a81548160ff0219169083151502179055505050565b60606000809054906101000a900473ffffffffffffffffffffffffffffffffffffffff1673ffffffffffffffffffffffffffffffffffffffff163373ffffffffffffffffffffffffffffffffffffffff16148061078e5750600160009054906101000a900473ffffffffffffffffffffffffffffffffffffffff1673ffffffffffffffffffffffffffffffffffffffff163373ffffffffffffffffffffffffffffffffffffffff16145b6107cd576040517f08c379a00000000000000000000000000000000000000000000000000000000081526004016107c4906126e8565b60405180910390fd5b6003805480602002602001604051908101604052809291908181526020016000905b828210156108de57838290600052602060002090600402016040518060c00160405290816000820160009054906101000a900460ff1660ff1660ff168152602001600182015481526020016002820160009054906101000a900473ffffffffffffffffffffffffffffffffffffffff1673ffffffffffffffffffffffffffffffffffffffff1673ffffffffffffffffffffffffffffffffffffffff1681526020016002820160149054906101000a900460ff161515151581526020016002820160159054906101000a900460ff16151515158152602001600382015481525050815260200190600101906107ef565b50505050905090565b6060600560003373ffffffffffffffffffffffffffffffffffffffff1673ffffffffffffffffffffffffffffffffffffffff168152602001908152602001600020805480602002602001604051908101604052809291908181526020016000905b82821015610a3757838290600052602060002090600402016040518060c00160405290816000820160009054906101000a900460ff1660ff1660ff168152602001600182015481526020016002820160009054906101000a900473ffffffffffffffffffffffffffffffffffffffff1673ffffffffffffffffffffffffffffffffffffffff1673ffffffffffffffffffffffffffffffffffffffff1681526020016002820160149054906101000a900460ff161515151581526020016002820160159054906101000a900460ff1615151515815260200160038201548152505081526020019060010190610948565b50505050905090565b600160009054906101000a900473ffffffffffffffffffffffffffffffffffffffff1673ffffffffffffffffffffffffffffffffffffffff163373ffffffffffffffffffffffffffffffffffffffff1614610ad0576040517f08c379a0000000000000000000000000000000000000000000000000000000008152600401610ac790612708565b60405180910390fd5b8060ff1660038054905011610b1a576040517f08c379a0000000000000000000000000000000000000000000000000000000008152600401610b11906126a8565b60405180910390fd5b60038160ff1681548110610b2a57fe5b906000526020600020906004020160020160149054906101000a900460ff1615610b89576040517f08c379a0000000000000000000000000000000000000000000000000000000008152600401610b8090612788565b60405180910390fd5b60038160ff1681548110610b9957fe5b906000526020600020906004020160020160159054906101000a900460ff1615610bf8576040517f08c379a0000000000000000000000000000000000000000000000000000000008152600401610bef90612668565b60405180910390fd5b600160038260ff1681548110610c0a57fe5b906000526020600020906004020160020160146101000a81548160ff0219169083151502179055504260038260ff1681548110610c4357fe5b90600052602060002090600402016003018190555060016005600060038460ff1681548110610c6e57fe5b906000526020600020906004020160020160009054906101000a900473ffffffffffffffffffffffffffffffffffffffff1673ffffffffffffffffffffffffffffffffffffffff1673ffffffffffffffffffffffffffffffffffffffff1681526020019081526020016000208260ff1681548110610ce857fe5b906000526020600020906004020160020160146101000a81548160ff021916908315150217905550426005600060038460ff1681548110610d2557fe5b906000526020600020906004020160020160009054906101000a900473ffffffffffffffffffffffffffffffffffffffff1673ffffffffffffffffffffffffffffffffffffffff1673ffffffffffffffffffffffffffffffffffffffff1681526020019081526020016000208260ff1681548110610d9f57fe5b90600052602060002090600402016003018190555060006004600060038460ff1681548110610dca57fe5b906000526020600020906004020160020160009054906101000a900473ffffffffffffffffffffffffffffffffffffffff1673ffffffffffffffffffffffffffffffffffffffff1673ffffffffffffffffffffffffffffffffffffffff168152602001908152602001600020600060038460ff1681548110610e4857fe5b906000526020600020906004020160000160009054906101000a900460ff1660ff1660ff16815260200190815260200160002060000160016101000a81548160ff021916908315150217905550600060038260ff1681548110610ea757fe5b906000526020600020906004020160020160009054906101000a900473ffffffffffffffffffffffffffffffffffffffff1690508073ffffffffffffffffffffffffffffffffffffffff166108fc60038460ff1681548110610f0557fe5b9060005260206000209060040201600101549081150290604051600060405180830381858888f19350505050158015610f42573d6000803e3d6000fd5b505050565b600160009054906101000a900473ffffffffffffffffffffffffffffffffffffffff1673ffffffffffffffffffffffffffffffffffffffff163373ffffffffffffffffffffffffffffffffffffffff1614610fd7576040517f08c379a0000000000000000000000000000000000000000000000000000000008152600401610fce90612708565b60405180910390fd5b8060ff1660038054905011611021576040517f08c379a0000000000000000000000000000000000000000000000000000000008152600401611018906126a8565b60405180910390fd5b60038160ff168154811061103157fe5b906000526020600020906004020160020160149054906101000a900460ff1615611090576040517f08c379a000000000000000000000000000000000000000000000000000000000815260040161108790612788565b60405180910390fd5b60038160ff16815481106110a057fe5b906000526020600020906004020160020160159054906101000a900460ff16156110ff576040517f08c379a00000000000000000000000000000000000000000000000000000000081526004016110f690612668565b60405180910390fd5b600160038260ff168154811061111157fe5b906000526020600020906004020160020160156101000a81548160ff0219169083151502179055504260038260ff168154811061114a57fe5b90600052602060002090600402016003018190555060006004600060038460ff168154811061117557fe5b906000526020600020906004020160020160009054906101000a900473ffffffffffffffffffffffffffffffffffffffff1673ffffffffffffffffffffffffffffffffffffffff1673ffffffffffffffffffffffffffffffffffffffff168152602001908152602001600020600060038460ff16815481106111f357fe5b906000526020600020906004020160000160009054906101000a900460ff1660ff1660ff16815260200190815260200160002060000160016101000a81548160ff02191690831515021790555050565b6000809054906101000a900473ffffffffffffffffffffffffffffffffffffffff1673ffffffffffffffffffffffffffffffffffffffff163373ffffffffffffffffffffffffffffffffffffffff16146112d2576040517f08c379a00000000000000000000000000000000000000000000000000000000081526004016112c990612688565b60405180910390fd5b565b60608060028054905060405190808252806020026020018201604052801561131657816020015b611303611dcd565b8152602001906001900390816112fb5790505b509050600080905060008090505b6002805490508160ff16101561140c57600460003373ffffffffffffffffffffffffffffffffffffffff1673ffffffffffffffffffffffffffffffffffffffff16815260200190815260200160002060008260ff1660ff1681526020019081526020016000206040518060800160405290816000820160009054906101000a900460ff161515151581526020016000820160019054906101000a900460ff1615151515815260200160018201548152602001600282015481525050838360ff16815181106113ee57fe5b60200260200101819052506001820191508080600101915050611324565b50819250505090565b60606000809054906101000a900473ffffffffffffffffffffffffffffffffffffffff1673ffffffffffffffffffffffffffffffffffffffff163373ffffffffffffffffffffffffffffffffffffffff1614156114a9576040518060400160405280600581526020017f6f776e65720000000000000000000000000000000000000000000000000000008152509050611575565b600160009054906101000a900473ffffffffffffffffffffffffffffffffffffffff1673ffffffffffffffffffffffffffffffffffffffff163373ffffffffffffffffffffffffffffffffffffffff16141561153c576040518060400160405280600681526020017f706f6c69636500000000000000000000000000000000000000000000000000008152509050611575565b6040518060400160405280600481526020017f757365720000000000000000000000000000000000000000000000000000000081525090505b90565b60606002805480602002602001604051908101604052809291908181526020016000905b8282101561166c57838290600052602060002001604051806020016040529081600082018054600181600116156101000203166002900480601f0160208091040260200160405190810160405280929190818152602001828054600181600116156101000203166002900480156116545780601f1061162957610100808354040283529160200191611654565b820191906000526020600020905b81548152906001019060200180831161163757829003601f168201915b5050505050815250508152602001906001019061159c565b50505050905090565b600460003373ffffffffffffffffffffffffffffffffffffffff1673ffffffffffffffffffffffffffffffffffffffff16815260200190815260200160002060008360ff1660ff16815260200190815260200160002060000160009054906101000a900460ff1661171b576040517f08c379a000000000000000000000000000000000000000000000000000000000815260040161171290612748565b60405180910390fd5b600460003373ffffffffffffffffffffffffffffffffffffffff1673ffffffffffffffffffffffffffffffffffffffff16815260200190815260200160002060008360ff1660ff16815260200190815260200160002060000160019054906101000a900460ff16156117c2576040517f08c379a00000000000000000000000000000000000000000000000000000000081526004016117b9906126c8565b60405180910390fd5b6001600460003373ffffffffffffffffffffffffffffffffffffffff1673ffffffffffffffffffffffffffffffffffffffff16815260200190815260200160002060008460ff1660ff16815260200190815260200160002060000160016101000a81548160ff021916908315150217905550600560003373ffffffffffffffffffffffffffffffffffffffff1673ffffffffffffffffffffffffffffffffffffffff1681526020019081526020016000206040518060c001604052808460ff1681526020018381526020013373ffffffffffffffffffffffffffffffffffffffff168152602001600015158152602001600015158152602001428152509080600181540180825580915050906001820390600052602060002090600402016000909192909190915060008201518160000160006101000a81548160ff021916908360ff1602179055506020820151816001015560408201518160020160006101000a81548173ffffffffffffffffffffffffffffffffffffffff021916908373ffffffffffffffffffffffffffffffffffffffff16021790555060608201518160020160146101000a81548160ff02191690831515021790555060808201518160020160156101000a81548160ff02191690831515021790555060a0820151816003015550505060036040518060c001604052808460ff1681526020018381526020013373ffffffffffffffffffffffffffffffffffffffff168152602001600015158152602001600015158152602001428152509080600181540180825580915050906001820390600052602060002090600402016000909192909190915060008201518160000160006101000a81548160ff021916908360ff1602179055506020820151816001015560408201518160020160006101000a81548173ffffffffffffffffffffffffffffffffffffffff021916908373ffffffffffffffffffffffffffffffffffffffff16021790555060608201518160020160146101000a81548160ff02191690831515021790555060808201518160020160156101000a81548160ff02191690831515021790555060a082015181600301555050505050565b6000809054906101000a900473ffffffffffffffffffffffffffffffffffffffff1673ffffffffffffffffffffffffffffffffffffffff163373ffffffffffffffffffffffffffffffffffffffff1614611b74576040517f08c379a0000000000000000000000000000000000000000000000000000000008152600401611b6b90612688565b60405180910390fd5b60026040518060200160405280838152509080600181540180825580915050906001820390600052602060002001600090919290919091506000820151816000019080519060200190611bc8929190611df9565b5050505050565b600460003373ffffffffffffffffffffffffffffffffffffffff1673ffffffffffffffffffffffffffffffffffffffff16815260200190815260200160002060008260ff1660ff16815260200190815260200160002060000160009054906101000a900460ff16611c75576040517f08c379a0000000000000000000000000000000000000000000000000000000008152600401611c6c90612748565b60405180910390fd5b600460003373ffffffffffffffffffffffffffffffffffffffff1673ffffffffffffffffffffffffffffffffffffffff16815260200190815260200160002060008260ff1660ff16815260200190815260200160002060010154341015611d11576040517f08c379a0000000000000000000000000000000000000000000000000000000008152600401611d0890612728565b60405180910390fd5b34600460003373ffffffffffffffffffffffffffffffffffffffff1673ffffffffffffffffffffffffffffffffffffffff16815260200190815260200160002060008360ff1660ff1681526020019081526020016000206002015401600460003373ffffffffffffffffffffffffffffffffffffffff1673ffffffffffffffffffffffffffffffffffffffff16815260200190815260200160002060008360ff1660ff1681526020019081526020016000206002018190555050565b604051806080016040528060001515815260200160001515815260200160008152602001600081525090565b828054600181600116156101000203166002900490600052602060002090601f016020900481019282601f10611e3a57805160ff1916838001178555611e68565b82800160010185558215611e68579182015b82811115611e67578251825591602001919060010190611e4c565b5b509050611e759190611e79565b5090565b611e9b91905b80821115611e97576000816000905550600101611e7f565b5090565b90565b600082601f830112611eaf57600080fd5b8135611ec2611ebd826127f0565b6127c3565b91508082526020830160208301858383011115611ede57600080fd5b611ee9838284612954565b50505092915050565b600081359050611f01816129a7565b92915050565b600081359050611f16816129be565b92915050565b600060208284031215611f2e57600080fd5b600082013567ffffffffffffffff811115611f4857600080fd5b611f5484828501611e9e565b91505092915050565b600060208284031215611f6f57600080fd5b6000611f7d84828501611f07565b91505092915050565b60008060408385031215611f9957600080fd5b6000611fa785828601611f07565b9250506020611fb885828601611ef2565b9150509250929050565b6000611fce83836124b9565b60c08301905092915050565b6000611fe68383612534565b60808301905092915050565b6000611ffe8383612589565b905092915050565b61200f816128ff565b82525050565b60006120208261284c565b61202a81856128aa565b93506120358361281c565b8060005b8381101561206657815161204d8882611fc2565b975061205883612883565b925050600181019050612039565b5085935050505092915050565b600061207e82612857565b61208881856128bb565b93506120938361282c565b8060005b838110156120c45781516120ab8882611fda565b97506120b683612890565b925050600181019050612097565b5085935050505092915050565b60006120dc82612862565b6120e681856128cc565b9350836020820285016120f88561283c565b8060005b8581101561213457848403895281516121158582611ff2565b94506121208361289d565b925060208a019950506001810190506120fc565b50829750879550505050505092915050565b61214f81612911565b82525050565b600061216082612878565b61216a81856128ee565b935061217a818560208601612963565b61218381612996565b840191505092915050565b60006121998261286d565b6121a381856128dd565b93506121b3818560208601612963565b6121bc81612996565b840191505092915050565b60006121d46017836128ee565b91507f436c61696d20616c72656164792072656a6563746564210000000000000000006000830152602082019050919050565b60006122146022836128ee565b91507f4f6e6c79206f776e6572732063616e2063616c6c20746869732066756e63746960008301527f6f6e0000000000000000000000000000000000000000000000000000000000006020830152604082019050919050565b600061227a6015836128ee565b91507f4e6f207375636820636c61696d206578697374732100000000000000000000006000830152602082019050919050565b60006122ba6019836128ee565b91507f496e737572616e636520616c726561647920636c61696d6564000000000000006000830152602082019050919050565b60006122fa602c836128ee565b91507f4f6e6c79206f776e657273206f7220706f6c6963652063616e2063616c6c207460008301527f6869732066756e6374696f6e00000000000000000000000000000000000000006020830152604082019050919050565b60006123606022836128ee565b91507f4f6e6c7920506f6c6963652063616e2063616c6c20746869732066756e63746960008301527f6f6e0000000000000000000000000000000000000000000000000000000000006020830152604082019050919050565b60006123c6600b836128ee565b91507f454d49206973206c6573730000000000000000000000000000000000000000006000830152602082019050919050565b6000612406601b836128ee565b91507f496e737572616e6365206e6f74207075726368617365642079657400000000006000830152602082019050919050565b6000612446601b836128ee565b91507f496e737572616e636520616c72656164792070757263686173656400000000006000830152602082019050919050565b60006124866017836128ee565b91507f436c61696d20616c726561647920617070726f766564210000000000000000006000830152602082019050919050565b60c0820160008201516124cf60008501826125d1565b5060208201516124e260208501826125b3565b5060408201516124f56040850182612006565b5060608201516125086060850182612146565b50608082015161251b6080850182612146565b5060a082015161252e60a08501826125b3565b50505050565b60808201600082015161254a6000850182612146565b50602082015161255d6020850182612146565b50604082015161257060408501826125b3565b50606082015161258360608501826125b3565b50505050565b600060208301600083015184820360008601526125a6828261218e565b9150508091505092915050565b6125bc8161293d565b82525050565b6125cb8161293d565b82525050565b6125da81612947565b82525050565b600060208201905081810360008301526125fa8184612015565b905092915050565b6000602082019050818103600083015261261c8184612073565b905092915050565b6000602082019050818103600083015261263e81846120d1565b905092915050565b600060208201905081810360008301526126608184612155565b905092915050565b60006020820190508181036000830152612681816121c7565b9050919050565b600060208201905081810360008301526126a181612207565b9050919050565b600060208201905081810360008301526126c18161226d565b9050919050565b600060208201905081810360008301526126e1816122ad565b9050919050565b60006020820190508181036000830152612701816122ed565b9050919050565b6000602082019050818103600083015261272181612353565b9050919050565b60006020820190508181036000830152612741816123b9565b9050919050565b60006020820190508181036000830152612761816123f9565b9050919050565b6000602082019050818103600083015261278181612439565b9050919050565b600060208201905081810360008301526127a181612479565b9050919050565b60006020820190506127bd60008301846125c2565b92915050565b6000604051905081810181811067ffffffffffffffff821117156127e657600080fd5b8060405250919050565b600067ffffffffffffffff82111561280757600080fd5b601f19601f8301169050602081019050919050565b6000819050602082019050919050565b6000819050602082019050919050565b6000819050602082019050919050565b600081519050919050565b600081519050919050565b600081519050919050565b600081519050919050565b600081519050919050565b6000602082019050919050565b6000602082019050919050565b6000602082019050919050565b600082825260208201905092915050565b600082825260208201905092915050565b600082825260208201905092915050565b600082825260208201905092915050565b600082825260208201905092915050565b600061290a8261291d565b9050919050565b60008115159050919050565b600073ffffffffffffffffffffffffffffffffffffffff82169050919050565b6000819050919050565b600060ff82169050919050565b82818337600083830152505050565b60005b83811015612981578082015181840152602081019050612966565b83811115612990576000848401525b50505050565b6000601f19601f8301169050919050565b6129b08161293d565b81146129bb57600080fd5b50565b6129c781612947565b81146129d257600080fd5b5056fea365627a7a72315820074f275aec0190dc33552942517e90a5cf56f341ba2b835013d99a2291f6613a6c6578706572696d656e74616cf564736f6c63430005100040",
  "source": "pragma solidity >=0.4.21 <0.7.0;\npragma experimental ABIEncoderV2;\n\ncontract Insurance {\n    address payable private owner;\n    address private police;\n\n    Product[] private products;\n    Claim[] private allClaims;\n    mapping(address => mapping(uint8 => InsuranceDetails)) private insurance;\n    mapping(address => Claim[]) private myClaims;\n    \n    constructor(address _police) public {\n        owner = msg.sender;\n        police = _police;\n    }\n    \n    struct Product {\n        string name;\n    }\n    \n    struct Claim {\n        uint8 productIndex;\n        uint256 amount;\n        address claimedBy;\n        bool isApproved;\n        bool isRejected;\n        uint time;\n    }\n\n    struct InsuranceDetails {\n        bool isPurchased;\n        bool isClaimed;\n        uint256 premium;\n        uint256 amount;\n    }\n    \n    modifier isPolice() {\n        require(msg.sender == police,\"Only Police can call this function\");\n        _;\n    }\n    \n    modifier isNotPolice() {\n        require(msg.sender != police,\"Police Cant purchase Insurance\");\n        _;\n    }\n    \n    modifier isOwner() {\n        require(msg.sender == owner, \"Only owners can call this function\");\n        _;\n    }\n\n    modifier isPolicyOrOwner() {\n        require(msg.sender == owner || msg.sender == police, \"Only owners or police can call this function\");\n        _;\n    }\n\n    function addProduct(string memory name) public isOwner {\n        products.push(Product(name));\n    }\n\n    function getProducts() public view returns(Product[] memory) {\n        return products;\n    }\n\n    function getMyInsurance() public view returns(InsuranceDetails[] memory) {\n        InsuranceDetails[] memory tempArray = new InsuranceDetails[](products.length);\n        uint8 k = 0;\n        for (uint8 i=0; i<products.length; i++) {\n            tempArray[k] = insurance[msg.sender][i];\n            k = k + 1;\n        }\n        return tempArray;\n    }\n\n    function getMyClaims() public view returns(Claim[] memory) {\n        // Claim[] memory tempClaims = new Claim[](allClaims.length);\n        // uint k = 0;\n        // for (uint i=0; i<allClaims.length; i++) {\n        //     if (allClaims[i].claimedBy == msg.sender) {\n        //         tempClaims[k] = allClaims[i];\n        //         k = k + 1;\n        //     }\n        // }\n        // return tempClaims;\n        return myClaims[msg.sender];\n    }\n\n    function getAllClaims() public view isPolicyOrOwner returns(Claim[] memory) {\n        return allClaims;\n    }\n    \n    function buyInsurance(uint8 productIndex, uint256 premium) public {\n        require(!insurance[msg.sender][productIndex].isPurchased, \"Insurance already purchased\");\n        insurance[msg.sender][productIndex].premium = premium;\n        insurance[msg.sender][productIndex].isPurchased = true;\n    }\n    \n    function payPremium(uint8 productIndex) public payable {\n        require(insurance[msg.sender][productIndex].isPurchased, \"Insurance not purchased yet\");\n        require(msg.value >= insurance[msg.sender][productIndex].premium, \"EMI is less\");\n        insurance[msg.sender][productIndex].amount = insurance[msg.sender][productIndex].amount + msg.value;\n    }\n    \n    function claimInsurance(uint8 productIndex, uint256 amount) public {\n        require(insurance[msg.sender][productIndex].isPurchased, \"Insurance not purchased yet\");\n        require(!insurance[msg.sender][productIndex].isClaimed, \"Insurance already claimed\");\n        insurance[msg.sender][productIndex].isClaimed = true;\n        myClaims[msg.sender].push(Claim(productIndex, amount, msg.sender, false, false, now));\n        allClaims.push(Claim(productIndex, amount, msg.sender, false, false, now));\n    }\n    \n    function approveInsurance(uint8 claimId) public isPolice {\n        require(allClaims.length > claimId, \"No such claim exists!\");\n        require(!allClaims[claimId].isApproved, \"Claim already approved!\");\n        require(!allClaims[claimId].isRejected, \"Claim already rejected!\");\n        allClaims[claimId].isApproved = true;\n        allClaims[claimId].time = now;\n        myClaims[allClaims[claimId].claimedBy][claimId].isApproved = true;\n        myClaims[allClaims[claimId].claimedBy][claimId].time = now;\n        insurance[allClaims[claimId].claimedBy][allClaims[claimId].productIndex].isClaimed = false;\n        address payable claimer = address(uint160(allClaims[claimId].claimedBy));\n        claimer.transfer(allClaims[claimId].amount);\n    }\n\n    function rejectInsurance(uint8 claimId) public isPolice {\n        require(allClaims.length > claimId, \"No such claim exists!\");\n        require(!allClaims[claimId].isApproved, \"Claim already approved!\");\n        require(!allClaims[claimId].isRejected, \"Claim already rejected!\");\n        allClaims[claimId].isRejected = true;\n        allClaims[claimId].time = now;\n        insurance[allClaims[claimId].claimedBy][allClaims[claimId].productIndex].isClaimed = false;\n    }\n    \n    function closeCompany() public isOwner {\n        selfdestruct(owner);\n    }\n    \n    function checkUser() public view returns (string memory){\n        if(msg.sender == owner)\n            return \"owner\";\n        if(msg.sender == police)\n            return \"police\";\n        else \n            return \"user\";\n    }\n    \n    function addFunds() public payable isOwner {\n        //\n    }\n\n    function transferToOwner() public isOwner{\n        owner.transfer(address(this).balance);\n    }\n    \n    function getBalance() public view isOwner returns (uint256) {\n        return address(this).balance;\n    }\n\n}",
  "sourcePath": "/media/arjun/Miscellaneous/bchain/blockchain-insurance/contracts/Insurance.sol",
  "compiler": {
    "name": "solc",
    "version": "0.5.16+commit.9c3226ce.Emscripten.clang"
  },
  "schemaVersion": "3.2.3",
  "updatedAt": "2020-08-16T18:08:23.942Z",
  "networkType": "ethereum",
  "devdoc": {
    "methods": {}
  },
  "userdoc": {
    "methods": {}
  }
}